{
    "_format": "hh-sol-artifact-1",
    "contractName": "GainerMarketplace",
    "sourceName": "contracts/GainerMarketplace.sol",
    "abi": [
        {
            "inputs": [
                {
                    "internalType": "contract IERC20",
                    "name": "erc20token",
                    "type": "address"
                }
            ],
            "stateMutability": "nonpayable",
            "type": "constructor"
        },
        {
            "anonymous": false,
            "inputs": [
                {
                    "indexed": false,
                    "internalType": "address",
                    "name": "sellerAddr",
                    "type": "address"
                },
                {
                    "indexed": false,
                    "internalType": "uint256",
                    "name": "listingId",
                    "type": "uint256"
                },
                {
                    "indexed": false,
                    "internalType": "uint256",
                    "name": "tokenId",
                    "type": "uint256"
                },
                {
                    "indexed": false,
                    "internalType": "uint256",
                    "name": "amount",
                    "type": "uint256"
                }
            ],
            "name": "AddListing",
            "type": "event"
        },
        {
            "anonymous": false,
            "inputs": [
                {
                    "indexed": false,
                    "internalType": "address",
                    "name": "sellerAddr",
                    "type": "address"
                },
                {
                    "indexed": false,
                    "internalType": "uint256",
                    "name": "listingId",
                    "type": "uint256"
                },
                {
                    "indexed": false,
                    "internalType": "uint256",
                    "name": "tokenId",
                    "type": "uint256"
                },
                {
                    "indexed": false,
                    "internalType": "uint256",
                    "name": "amount",
                    "type": "uint256"
                },
                {
                    "indexed": false,
                    "internalType": "address",
                    "name": "buyerAddr",
                    "type": "address"
                },
                {
                    "indexed": false,
                    "internalType": "string",
                    "name": "note",
                    "type": "string"
                }
            ],
            "name": "DoneTrx",
            "type": "event"
        },
        {
            "anonymous": false,
            "inputs": [
                {
                    "indexed": true,
                    "internalType": "address",
                    "name": "sellerAddr",
                    "type": "address"
                },
                {
                    "indexed": false,
                    "internalType": "uint256",
                    "name": "listingId",
                    "type": "uint256"
                },
                {
                    "indexed": true,
                    "internalType": "uint256",
                    "name": "amount",
                    "type": "uint256"
                },
                {
                    "indexed": true,
                    "internalType": "address",
                    "name": "buyerAddr",
                    "type": "address"
                },
                {
                    "indexed": false,
                    "internalType": "string",
                    "name": "note",
                    "type": "string"
                }
            ],
            "name": "DoneTrxGainerFive",
            "type": "event"
        },
        {
            "anonymous": false,
            "inputs": [
                {
                    "indexed": true,
                    "internalType": "address",
                    "name": "sellerAddr",
                    "type": "address"
                },
                {
                    "indexed": false,
                    "internalType": "uint256",
                    "name": "listingId",
                    "type": "uint256"
                },
                {
                    "indexed": true,
                    "internalType": "uint256",
                    "name": "amount",
                    "type": "uint256"
                },
                {
                    "indexed": true,
                    "internalType": "address",
                    "name": "buyerAddr",
                    "type": "address"
                },
                {
                    "indexed": false,
                    "internalType": "string",
                    "name": "note",
                    "type": "string"
                }
            ],
            "name": "DoneTrxGainerOne",
            "type": "event"
        },
        {
            "anonymous": false,
            "inputs": [
                {
                    "indexed": true,
                    "internalType": "address",
                    "name": "sellerAddr",
                    "type": "address"
                },
                {
                    "indexed": false,
                    "internalType": "uint256",
                    "name": "listingId",
                    "type": "uint256"
                },
                {
                    "indexed": true,
                    "internalType": "uint256",
                    "name": "amount",
                    "type": "uint256"
                },
                {
                    "indexed": true,
                    "internalType": "address",
                    "name": "buyerAddr",
                    "type": "address"
                },
                {
                    "indexed": false,
                    "internalType": "string",
                    "name": "note",
                    "type": "string"
                }
            ],
            "name": "DoneTrxGainerTen",
            "type": "event"
        },
        {
            "anonymous": false,
            "inputs": [
                {
                    "indexed": false,
                    "internalType": "address",
                    "name": "sellerAddr",
                    "type": "address"
                },
                {
                    "indexed": false,
                    "internalType": "uint256",
                    "name": "listingId",
                    "type": "uint256"
                },
                {
                    "indexed": false,
                    "internalType": "uint256",
                    "name": "tokenId",
                    "type": "uint256"
                },
                {
                    "indexed": false,
                    "internalType": "uint256",
                    "name": "amount",
                    "type": "uint256"
                },
                {
                    "indexed": false,
                    "internalType": "uint256",
                    "name": "prevListingId",
                    "type": "uint256"
                }
            ],
            "name": "ModifyListing",
            "type": "event"
        },
        {
            "anonymous": false,
            "inputs": [
                {
                    "indexed": true,
                    "internalType": "address",
                    "name": "previousOwner",
                    "type": "address"
                },
                {
                    "indexed": true,
                    "internalType": "address",
                    "name": "newOwner",
                    "type": "address"
                }
            ],
            "name": "OwnershipTransferred",
            "type": "event"
        },
        {
            "inputs": [
                {
                    "internalType": "uint256",
                    "name": "",
                    "type": "uint256"
                },
                {
                    "internalType": "uint256",
                    "name": "",
                    "type": "uint256"
                }
            ],
            "name": "Listing",
            "outputs": [
                {
                    "internalType": "uint256",
                    "name": "prev",
                    "type": "uint256"
                },
                {
                    "internalType": "uint256",
                    "name": "selfIndex",
                    "type": "uint256"
                },
                {
                    "internalType": "uint256",
                    "name": "next",
                    "type": "uint256"
                },
                {
                    "internalType": "address",
                    "name": "sellerAddr",
                    "type": "address"
                },
                {
                    "internalType": "uint256",
                    "name": "amount",
                    "type": "uint256"
                }
            ],
            "stateMutability": "view",
            "type": "function"
        },
        {
            "inputs": [
                {
                    "internalType": "address",
                    "name": "",
                    "type": "address"
                },
                {
                    "internalType": "uint256",
                    "name": "",
                    "type": "uint256"
                }
            ],
            "name": "UserListing",
            "outputs": [
                {
                    "internalType": "uint256",
                    "name": "",
                    "type": "uint256"
                }
            ],
            "stateMutability": "view",
            "type": "function"
        },
        {
            "inputs": [],
            "name": "_erc20token",
            "outputs": [
                {
                    "internalType": "contract IERC20",
                    "name": "",
                    "type": "address"
                }
            ],
            "stateMutability": "view",
            "type": "function"
        },
        {
            "inputs": [],
            "name": "_gainerFiveGiveAwayAmount",
            "outputs": [
                {
                    "internalType": "uint256",
                    "name": "",
                    "type": "uint256"
                }
            ],
            "stateMutability": "view",
            "type": "function"
        },
        {
            "inputs": [],
            "name": "_gainerMarketplaceTokenHolder",
            "outputs": [
                {
                    "internalType": "address",
                    "name": "",
                    "type": "address"
                }
            ],
            "stateMutability": "view",
            "type": "function"
        },
        {
            "inputs": [],
            "name": "_gainerNFT",
            "outputs": [
                {
                    "internalType": "contract IERC1155",
                    "name": "",
                    "type": "address"
                }
            ],
            "stateMutability": "view",
            "type": "function"
        },
        {
            "inputs": [],
            "name": "_gainerNFTprice",
            "outputs": [
                {
                    "internalType": "uint256",
                    "name": "",
                    "type": "uint256"
                }
            ],
            "stateMutability": "view",
            "type": "function"
        },
        {
            "inputs": [],
            "name": "_gainerOneGiveAwayAmount",
            "outputs": [
                {
                    "internalType": "uint256",
                    "name": "",
                    "type": "uint256"
                }
            ],
            "stateMutability": "view",
            "type": "function"
        },
        {
            "inputs": [],
            "name": "_gainerTenGiveAwayAmount",
            "outputs": [
                {
                    "internalType": "uint256",
                    "name": "",
                    "type": "uint256"
                }
            ],
            "stateMutability": "view",
            "type": "function"
        },
        {
            "inputs": [],
            "name": "_giveAwayWalletAddr",
            "outputs": [
                {
                    "internalType": "address",
                    "name": "",
                    "type": "address"
                }
            ],
            "stateMutability": "view",
            "type": "function"
        },
        {
            "inputs": [],
            "name": "_otherERC20Token",
            "outputs": [
                {
                    "internalType": "contract IERC20",
                    "name": "",
                    "type": "address"
                }
            ],
            "stateMutability": "view",
            "type": "function"
        },
        {
            "inputs": [],
            "name": "_protocolWalletAddr",
            "outputs": [
                {
                    "internalType": "address",
                    "name": "",
                    "type": "address"
                }
            ],
            "stateMutability": "view",
            "type": "function"
        },
        {
            "inputs": [],
            "name": "_rebasePercentage",
            "outputs": [
                {
                    "internalType": "uint256",
                    "name": "",
                    "type": "uint256"
                }
            ],
            "stateMutability": "view",
            "type": "function"
        },
        {
            "inputs": [],
            "name": "_time",
            "outputs": [
                {
                    "internalType": "uint256",
                    "name": "",
                    "type": "uint256"
                }
            ],
            "stateMutability": "view",
            "type": "function"
        },
        {
            "inputs": [],
            "name": "_transactionFee",
            "outputs": [
                {
                    "internalType": "uint256",
                    "name": "",
                    "type": "uint256"
                }
            ],
            "stateMutability": "view",
            "type": "function"
        },
        {
            "inputs": [
                {
                    "internalType": "uint256",
                    "name": "tokenId",
                    "type": "uint256"
                },
                {
                    "internalType": "uint256",
                    "name": "amount",
                    "type": "uint256"
                }
            ],
            "name": "addListingNFT",
            "outputs": [],
            "stateMutability": "nonpayable",
            "type": "function"
        },
        {
            "inputs": [
                {
                    "internalType": "uint256",
                    "name": "moneyAmount",
                    "type": "uint256"
                },
                {
                    "internalType": "uint256",
                    "name": "tokenId",
                    "type": "uint256"
                },
                {
                    "internalType": "uint256",
                    "name": "tokenAmount",
                    "type": "uint256"
                }
            ],
            "name": "buyNFT",
            "outputs": [
                {
                    "internalType": "bool",
                    "name": "",
                    "type": "bool"
                }
            ],
            "stateMutability": "nonpayable",
            "type": "function"
        },
        {
            "inputs": [
                {
                    "internalType": "uint256",
                    "name": "moneyAmount",
                    "type": "uint256"
                },
                {
                    "internalType": "uint256",
                    "name": "tokenId",
                    "type": "uint256"
                },
                {
                    "internalType": "uint256",
                    "name": "tokenAmount",
                    "type": "uint256"
                }
            ],
            "name": "buyNFTFromGainerProtocol",
            "outputs": [],
            "stateMutability": "nonpayable",
            "type": "function"
        },
        {
            "inputs": [
                {
                    "internalType": "uint256",
                    "name": "tokenId",
                    "type": "uint256"
                }
            ],
            "name": "cancelListing",
            "outputs": [],
            "stateMutability": "nonpayable",
            "type": "function"
        },
        {
            "inputs": [
                {
                    "internalType": "uint256",
                    "name": "tokenId",
                    "type": "uint256"
                }
            ],
            "name": "checkLastListing",
            "outputs": [
                {
                    "components": [
                        {
                            "internalType": "uint256",
                            "name": "prev",
                            "type": "uint256"
                        },
                        {
                            "internalType": "uint256",
                            "name": "selfIndex",
                            "type": "uint256"
                        },
                        {
                            "internalType": "uint256",
                            "name": "next",
                            "type": "uint256"
                        },
                        {
                            "internalType": "address",
                            "name": "sellerAddr",
                            "type": "address"
                        },
                        {
                            "internalType": "uint256",
                            "name": "amount",
                            "type": "uint256"
                        }
                    ],
                    "internalType": "struct GainerMarketplace.NFTListing",
                    "name": "",
                    "type": "tuple"
                }
            ],
            "stateMutability": "view",
            "type": "function"
        },
        {
            "inputs": [
                {
                    "internalType": "uint256",
                    "name": "tokenId",
                    "type": "uint256"
                }
            ],
            "name": "checkTopListing",
            "outputs": [
                {
                    "components": [
                        {
                            "internalType": "uint256",
                            "name": "prev",
                            "type": "uint256"
                        },
                        {
                            "internalType": "uint256",
                            "name": "selfIndex",
                            "type": "uint256"
                        },
                        {
                            "internalType": "uint256",
                            "name": "next",
                            "type": "uint256"
                        },
                        {
                            "internalType": "address",
                            "name": "sellerAddr",
                            "type": "address"
                        },
                        {
                            "internalType": "uint256",
                            "name": "amount",
                            "type": "uint256"
                        }
                    ],
                    "internalType": "struct GainerMarketplace.NFTListing",
                    "name": "",
                    "type": "tuple"
                }
            ],
            "stateMutability": "view",
            "type": "function"
        },
        {
            "inputs": [
                {
                    "internalType": "uint256",
                    "name": "tokenId",
                    "type": "uint256"
                }
            ],
            "name": "checkUserListing",
            "outputs": [
                {
                    "internalType": "bool",
                    "name": "",
                    "type": "bool"
                }
            ],
            "stateMutability": "view",
            "type": "function"
        },
        {
            "inputs": [],
            "name": "claimGiveAway",
            "outputs": [],
            "stateMutability": "nonpayable",
            "type": "function"
        },
        {
            "inputs": [],
            "name": "feeCollector",
            "outputs": [
                {
                    "internalType": "uint256",
                    "name": "",
                    "type": "uint256"
                }
            ],
            "stateMutability": "view",
            "type": "function"
        },
        {
            "inputs": [],
            "name": "headGainerFive",
            "outputs": [
                {
                    "internalType": "uint256",
                    "name": "",
                    "type": "uint256"
                }
            ],
            "stateMutability": "view",
            "type": "function"
        },
        {
            "inputs": [],
            "name": "headGainerOne",
            "outputs": [
                {
                    "internalType": "uint256",
                    "name": "",
                    "type": "uint256"
                }
            ],
            "stateMutability": "view",
            "type": "function"
        },
        {
            "inputs": [],
            "name": "headGainerTen",
            "outputs": [
                {
                    "internalType": "uint256",
                    "name": "",
                    "type": "uint256"
                }
            ],
            "stateMutability": "view",
            "type": "function"
        },
        {
            "inputs": [],
            "name": "isClaimOpen",
            "outputs": [
                {
                    "internalType": "bool",
                    "name": "",
                    "type": "bool"
                }
            ],
            "stateMutability": "view",
            "type": "function"
        },
        {
            "inputs": [
                {
                    "internalType": "uint256",
                    "name": "tokenId",
                    "type": "uint256"
                },
                {
                    "internalType": "uint256",
                    "name": "head",
                    "type": "uint256"
                }
            ],
            "name": "isEmpty",
            "outputs": [
                {
                    "internalType": "bool",
                    "name": "",
                    "type": "bool"
                }
            ],
            "stateMutability": "view",
            "type": "function"
        },
        {
            "inputs": [],
            "name": "nextDay",
            "outputs": [
                {
                    "internalType": "uint256",
                    "name": "",
                    "type": "uint256"
                }
            ],
            "stateMutability": "view",
            "type": "function"
        },
        {
            "inputs": [],
            "name": "owner",
            "outputs": [
                {
                    "internalType": "address",
                    "name": "",
                    "type": "address"
                }
            ],
            "stateMutability": "view",
            "type": "function"
        },
        {
            "inputs": [],
            "name": "renounceOwnership",
            "outputs": [],
            "stateMutability": "nonpayable",
            "type": "function"
        },
        {
            "inputs": [
                {
                    "internalType": "contract IERC1155",
                    "name": "gainerNFTaddr",
                    "type": "address"
                },
                {
                    "internalType": "address",
                    "name": "gainerMarketplaceTokenHolder",
                    "type": "address"
                }
            ],
            "name": "setGainerNFTurlAndGainerTokenHolder",
            "outputs": [
                {
                    "internalType": "bool",
                    "name": "",
                    "type": "bool"
                }
            ],
            "stateMutability": "nonpayable",
            "type": "function"
        },
        {
            "inputs": [
                {
                    "internalType": "address",
                    "name": "giveAwayWalletAddr",
                    "type": "address"
                }
            ],
            "name": "setGiveAwayWalletAddr",
            "outputs": [],
            "stateMutability": "nonpayable",
            "type": "function"
        },
        {
            "inputs": [
                {
                    "internalType": "uint256",
                    "name": "gainerOneGiveAwayAmount",
                    "type": "uint256"
                },
                {
                    "internalType": "uint256",
                    "name": "gainerFiveGiveAwayAmount",
                    "type": "uint256"
                },
                {
                    "internalType": "uint256",
                    "name": "gainerTenGiveAwayAmount",
                    "type": "uint256"
                }
            ],
            "name": "setNFTGiveAwayAmount",
            "outputs": [],
            "stateMutability": "nonpayable",
            "type": "function"
        },
        {
            "inputs": [
                {
                    "internalType": "contract IERC20",
                    "name": "addr",
                    "type": "address"
                }
            ],
            "name": "setOtherERC20Token",
            "outputs": [],
            "stateMutability": "nonpayable",
            "type": "function"
        },
        {
            "inputs": [
                {
                    "internalType": "address",
                    "name": "protocolWalletAddr",
                    "type": "address"
                }
            ],
            "name": "setProtocolWalletAddr",
            "outputs": [],
            "stateMutability": "nonpayable",
            "type": "function"
        },
        {
            "inputs": [
                {
                    "internalType": "bool",
                    "name": "status",
                    "type": "bool"
                }
            ],
            "name": "setStatusGiveaway",
            "outputs": [],
            "stateMutability": "nonpayable",
            "type": "function"
        },
        {
            "inputs": [
                {
                    "internalType": "uint256",
                    "name": "_nextDay",
                    "type": "uint256"
                }
            ],
            "name": "setupDay",
            "outputs": [],
            "stateMutability": "nonpayable",
            "type": "function"
        },
        {
            "inputs": [],
            "name": "showOtherERC20Token",
            "outputs": [
                {
                    "internalType": "contract IERC20",
                    "name": "",
                    "type": "address"
                }
            ],
            "stateMutability": "view",
            "type": "function"
        },
        {
            "inputs": [],
            "name": "showPrice",
            "outputs": [
                {
                    "internalType": "uint256",
                    "name": "",
                    "type": "uint256"
                }
            ],
            "stateMutability": "view",
            "type": "function"
        },
        {
            "inputs": [],
            "name": "tailGainerFive",
            "outputs": [
                {
                    "internalType": "uint256",
                    "name": "",
                    "type": "uint256"
                }
            ],
            "stateMutability": "view",
            "type": "function"
        },
        {
            "inputs": [],
            "name": "tailGainerOne",
            "outputs": [
                {
                    "internalType": "uint256",
                    "name": "",
                    "type": "uint256"
                }
            ],
            "stateMutability": "view",
            "type": "function"
        },
        {
            "inputs": [],
            "name": "tailGainerTen",
            "outputs": [
                {
                    "internalType": "uint256",
                    "name": "",
                    "type": "uint256"
                }
            ],
            "stateMutability": "view",
            "type": "function"
        },
        {
            "inputs": [
                {
                    "internalType": "address",
                    "name": "_to",
                    "type": "address"
                }
            ],
            "name": "transferOtherERC20Token",
            "outputs": [],
            "stateMutability": "nonpayable",
            "type": "function"
        },
        {
            "inputs": [
                {
                    "internalType": "address",
                    "name": "newOwner",
                    "type": "address"
                }
            ],
            "name": "transferOwnership",
            "outputs": [],
            "stateMutability": "nonpayable",
            "type": "function"
        },
        {
            "inputs": [
                {
                    "internalType": "address",
                    "name": "",
                    "type": "address"
                }
            ],
            "name": "userClaimGiveAway",
            "outputs": [
                {
                    "internalType": "bool",
                    "name": "",
                    "type": "bool"
                }
            ],
            "stateMutability": "view",
            "type": "function"
        },
        {
            "inputs": [
                {
                    "internalType": "address",
                    "name": "",
                    "type": "address"
                }
            ],
            "name": "userErc20TokenBalanceInGainerProtocol",
            "outputs": [
                {
                    "internalType": "uint256",
                    "name": "",
                    "type": "uint256"
                }
            ],
            "stateMutability": "view",
            "type": "function"
        },
        {
            "inputs": [],
            "name": "withdrawFeeTransaction",
            "outputs": [],
            "stateMutability": "nonpayable",
            "type": "function"
        },
        {
            "inputs": [],
            "name": "withdrawUserERC20Token",
            "outputs": [],
            "stateMutability": "nonpayable",
            "type": "function"
        }
    ],
    "bytecode": "0x608060405262989680600555600560075560026009556000600f5560006010556000601155600a601555600260165560016017553480156200004057600080fd5b5060405162003753380380620037538339810160408190526200006391620000e8565b6200006e3362000098565b60018055600280546001600160a01b0319166001600160a01b039290921691909117905562000118565b600080546001600160a01b038381166001600160a01b0319831681178455604051919092169283917f8be0079c531659141344cd1fd0a4f28419497f9722a3daafe3b4186f6b6457e09190a35050565b600060208284031215620000fa578081fd5b81516001600160a01b038116811462000111578182fd5b9392505050565b61362b80620001286000396000f3fe608060405234801561001057600080fd5b50600436106102d65760003560e01c80636b13b887116101825780639b404905116100e9578063d5d36017116100a2578063f071188e1161007c578063f071188e14610523578063f2fde38b146106ca578063f4ccbe07146106dd578063ff767571146106f057600080fd5b8063d5d36017146106a5578063e4b70b42146106ae578063e655e15d146106c157600080fd5b80639b404905146105c5578063a3cf8b2814610523578063c415b95c146105d8578063cb124e1d146105e1578063cd247bd2146105f4578063d2d41d641461062357600080fd5b806382cbb41f1161013b57806382cbb41f1461057557806386514a751461057d5780638da5cb5b146105865780638e0e0abb146105975780638e838ea41461059f57806390080b84146105b257600080fd5b80636b13b887146105235780636f302bb91461052b578063715018a6146105345780637ba2597d1461053c5780637e10f42e1461054f57806382a6e5681461056257600080fd5b80632d1558aa1161024157806346403f2b116101fa57806352aa0b4d116101d457806352aa0b4d146104ea57806357d15c6a146104f25780635c771207146104fb5780636956491b1461051b57600080fd5b806346403f2b146104a15780634b8e31a2146104b45780634de07f03146104c757600080fd5b80632d1558aa1461042a5780632e908b8714610433578063305a67a81461045f5780633191f5e714610472578063350013a7146104855780633ed4df021461049857600080fd5b8063226b5cea11610293578063226b5cea146103c457806324fd2652146103d7578063273cc938146103f457806327597cd6146103fd5780632998fca3146104065780632b17730e1461041757600080fd5b80630b2c1f3e146102db5780630b9452631461030b57806315443afc1461032257806317b7c544146103375780631d2b381e14610340578063209d407a14610399575b600080fd5b6018546102ee906001600160a01b031681565b6040516001600160a01b0390911681526020015b60405180910390f35b61031460115481565b604051908152602001610302565b61033561033036600461328f565b610703565b005b61031460075481565b61035361034e36600461334d565b610758565b60405161030291908151815260208083015190820152604080830151908201526060808301516001600160a01b0316908201526080918201519181019190915260a00190565b6103146103a73660046132b2565b600e60209081526000928352604080842090915290825290205481565b6103356103d23660046132dd565b6108bc565b6014546103e49060ff1681565b6040519015158152602001610302565b610314600f5481565b61031460055481565b6018546001600160a01b03166102ee565b61033561042536600461334d565b6108f9565b61031460085481565b6103e461044136600461334d565b336000908152600e6020908152604080832093835292905220541590565b61033561046d36600461334d565b610928565b6012546102ee906001600160a01b031681565b61033561049336600461339e565b610ba7565b61031460175481565b6103356104af36600461328f565b610e6b565b6002546102ee906001600160a01b031681565b6103e46104d536600461328f565b60136020526000908152604090205460ff1681565b610335610f9e565b61031460065481565b61031461050936600461328f565b600c6020526000908152604090205481565b6103356110b7565b610314600081565b61031460095481565b6103356111b8565b61033561054a36600461339e565b6111ee565b6003546102ee906001600160a01b031681565b600b546102ee906001600160a01b031681565b610335611226565b61031460155481565b6000546001600160a01b03166102ee565b6103146115f5565b6103356105ad36600461328f565b61169a565b6103e46105c0366004613315565b6116e6565b6103356105d336600461337d565b611743565b610314600a5481565b6103356105ef36600461328f565b611f7f565b6103e461060236600461337d565b6000918252600d602090815260408084209284529190529020600201541590565b61067461063136600461337d565b600d602090815260009283526040808420909152908252902080546001820154600283015460038401546004909401549293919290916001600160a01b03169085565b604080519586526020860194909452928401919091526001600160a01b03166060830152608082015260a001610302565b61031460165481565b6103e46106bc36600461339e565b611fcb565b61031460105481565b6103356106d836600461328f565b612efa565b6103536106eb36600461334d565b612f95565b6004546102ee906001600160a01b031681565b6000546001600160a01b031633146107365760405162461bcd60e51b815260040161072d90613482565b60405180910390fd5b600b80546001600160a01b0319166001600160a01b0392909216919091179055565b610760613257565b610768613257565b826107d657506000828152600d60209081526040808320600f5484528252808320600190810154845292819020815160a08101835281548152938101549284019290925260028201549083015260038101546001600160a01b031660608301526004015460808201526108b6565b826001141561084857506000828152600d6020908152604080832060105484528252808320600190810154845292819020815160a08101835281548152938101549284019290925260028201549083015260038101546001600160a01b031660608301526004015460808201526108b6565b82600314156108b657506000828152600d6020908152604080832060115484528252808320600190810154845292819020815160a08101835281548152938101549284019290925260028201549083015260038101546001600160a01b031660608301526004015460808201525b92915050565b6000546001600160a01b031633146108e65760405162461bcd60e51b815260040161072d90613482565b6014805460ff1916911515919091179055565b6000546001600160a01b031633146109235760405162461bcd60e51b815260040161072d90613482565b600855565b6002600154141561094b5760405162461bcd60e51b815260040161072d906134dc565b6002600155336000908152600e602090815260408083208484529091529020546109b75760405162461bcd60e51b815260206004820152601760248201527f594f5520444f4e5420484156452041204c495354494e47000000000000000000604482015260640161072d565b336000908152600e60209081526040808320848452825280832054600d835281842081855290925290912082610a1a57600f5481600101541415610a15576000838152600d60209081526040808320600f8054855292529091205490555b610a83565b8260011415610a555760105481600101541415610a15576000838152600d602090815260408083206010805485529252909120549055610a83565b60115481600101541415610a83576000838152600d6020908152604080832060118054855292529091205490555b6000838152600d602090815260408083206001850180548552925280832080546002918201548186528386209092018290559254845281842054818552938290209390935560035460048054818701549351637921219560e11b81529495946001600160a01b039384169463f242432a94610b069493169233928c9291016133c9565b600060405180830381600087803b158015610b2057600080fd5b505af1158015610b34573d6000803e3d6000fd5b5050506003808501546001600160a01b03166000908152600e60209081526040808320998352988152888220829055600d8152888220600197880154835290529687208781558086018890556002810188905590810180546001600160a01b031916905560040195909555505080555050565b60026001541415610bca5760405162461bcd60e51b815260040161072d906134dc565b6002600155610bd76130f6565b600082610be75750600554610c15565b8260011415610c045760058054610bfd9161354b565b9050610c15565b600554610c1290600a61354b565b90505b821580610c225750826001145b80610c2d5750826002145b610c495760405162461bcd60e51b815260040161072d906134b7565b610c53818361354b565b8414610c9b5760405162461bcd60e51b815260206004820152601760248201527609a9e9c8ab240829a9eaa9ca8409aaaa6a8409a82a8869604b1b604482015260640161072d565b600354600b54604051627eeac760e11b81526001600160a01b03918216600482015260248101869052600092919091169062fdd58e9060440160206040518083038186803b158015610cec57600080fd5b505afa158015610d00573d6000803e3d6000fd5b505050506040513d601f19601f82011682018060405250810190610d249190613365565b905080831115610d655760405162461bcd60e51b815260206004820152600c60248201526b4f5554204f462053544f434b60a01b604482015260640161072d565b600254600b546040516323b872dd60e01b81523360048201526001600160a01b039182166024820152604481018890529116906323b872dd90606401602060405180830381600087803b158015610dbb57600080fd5b505af1158015610dcf573d6000803e3d6000fd5b505050506040513d601f19601f82011682018060405250810190610df391906132f9565b50600354600b54604051637921219560e11b81526001600160a01b039283169263f242432a92610e2e929116903390899089906004016133c9565b600060405180830381600087803b158015610e4857600080fd5b505af1158015610e5c573d6000803e3d6000fd5b50506001805550505050505050565b6000546001600160a01b03163314610e955760405162461bcd60e51b815260040161072d90613482565b6018546040516370a0823160e01b81523060048201526000916001600160a01b0316906370a082319060240160206040518083038186803b158015610ed957600080fd5b505afa158015610eed573d6000803e3d6000fd5b505050506040513d601f19601f82011682018060405250810190610f119190613365565b60185460405163a9059cbb60e01b81526001600160a01b0385811660048301526024820184905292935091169063a9059cbb90604401602060405180830381600087803b158015610f6157600080fd5b505af1158015610f75573d6000803e3d6000fd5b505050506040513d601f19601f82011682018060405250810190610f9991906132f9565b505050565b60026001541415610fc15760405162461bcd60e51b815260040161072d906134dc565b6002600155336000908152600c6020526040902054806110185760405162461bcd60e51b81526020600482015260126024820152714e6f7420656e617567682062616c616e636560701b604482015260640161072d565b336000818152600c602052604080822091909155600254905163a9059cbb60e01b81526004810192909252602482018390526001600160a01b03169063a9059cbb90604401602060405180830381600087803b15801561107757600080fd5b505af115801561108b573d6000803e3d6000fd5b505050506040513d601f19601f820116820180604052508101906110af91906132f9565b505060018055565b6000546001600160a01b031633146110e15760405162461bcd60e51b815260040161072d90613482565b6000600a54116111285760405162461bcd60e51b81526020600482015260126024820152714e4f5420454e415547482042414c414e434560701b604482015260640161072d565b600254600a5460405163a9059cbb60e01b815233600482015260248101919091526001600160a01b039091169063a9059cbb90604401602060405180830381600087803b15801561117857600080fd5b505af115801561118c573d6000803e3d6000fd5b505050506040513d601f19601f820116820180604052508101906111b091906132f9565b506000600a55565b6000546001600160a01b031633146111e25760405162461bcd60e51b815260040161072d90613482565b6111ec60006131a6565b565b6000546001600160a01b031633146112185760405162461bcd60e51b815260040161072d90613482565b601592909255601655601755565b60145460ff1661126c5760405162461bcd60e51b81526020600482015260116024820152701393d50810d31052535050931148165155607a1b604482015260640161072d565b600354601254604051627eeac760e11b81526001600160a01b03918216600482015260006024820181905292919091169062fdd58e9060440160206040518083038186803b1580156112bd57600080fd5b505afa1580156112d1573d6000803e3d6000fd5b505050506040513d601f19601f820116820180604052508101906112f59190613365565b600354601254604051627eeac760e11b81526001600160a01b0391821660048201526001602482015292935060009291169062fdd58e9060440160206040518083038186803b15801561134757600080fd5b505afa15801561135b573d6000803e3d6000fd5b505050506040513d601f19601f8201168201806040525081019061137f9190613365565b600354601254604051627eeac760e11b81526001600160a01b0391821660048201526002602482015292935060009291169062fdd58e9060440160206040518083038186803b1580156113d157600080fd5b505afa1580156113e5573d6000803e3d6000fd5b505050506040513d601f19601f820116820180604052508101906114099190613365565b9050600083118061141a5750600082115b806114255750600081115b6114715760405162461bcd60e51b815260206004820152601860248201527f414c4c204e46547320414c524541445920434c41494d45440000000000000000604482015260640161072d565b3360009081526013602052604090205460ff1661159f57336000908152601360205260409020805460ff19166001179055821561151b57600354601254601554604051637921219560e11b81526001600160a01b039384169363f242432a936114e49391169133916000916004016133c9565b600060405180830381600087803b1580156114fe57600080fd5b505af1158015611512573d6000803e3d6000fd5b50505050505050565b811561155d57600354601254601654604051637921219560e11b81526001600160a01b039384169363f242432a936114e49391169133916001916004016133c9565b8015610f9957600354601254601754604051637921219560e11b81526001600160a01b039384169363f242432a936114e49391169133916002916004016133c9565b3360009081526013602052604090205460ff1615610f995760405162461bcd60e51b81526020600482015260136024820152721653d548105314915051164810d31052535151606a1b604482015260640161072d565b60006008544211156116935760006018603c8060085442611616919061356a565b611620919061352b565b61162a919061352b565b611634919061352b565b90508061164357505060055490565b60055460005b8281101561168c576103e8600754600554611664919061354b565b61166e919061352b565b6116789083613513565b91508061168481613581565b915050611649565b5092915050565b5060055490565b6000546001600160a01b031633146116c45760405162461bcd60e51b815260040161072d90613482565b601880546001600160a01b0319166001600160a01b0392909216919091179055565b600080546001600160a01b031633146117115760405162461bcd60e51b815260040161072d90613482565b50600380546001600160a01b039384166001600160a01b03199182161790915560048054929093169116179055600190565b8115806117505750816001145b8061175b5750816002145b6117775760405162461bcd60e51b815260040161072d906134b7565b336000908152600e60209081526040808320858452909152902054156117df5760405162461bcd60e51b815260206004820152601a60248201527f594f5520414c524541445920484156452041204c495354494e47000000000000604482015260640161072d565b6117e76130f6565b60035460048054604051637921219560e11b81526001600160a01b039384169363f242432a9361182093339392169188918891016133c9565b600060405180830381600087803b15801561183a57600080fd5b505af115801561184e573d6000803e3d6000fd5b505050508160001415611ac0576000828152600d60209081526040808320838052909152902060020154611956576000828152600d6020908152604080832083805280835281842060016002918201819055835160a0810185528681528086018281528186018881523360608401818152608085018c8152868c52978a52888b2094518555925184860155905194830194909455516003820180546001600160a01b0319166001600160a01b039092169190911790559251600490930192909255600f829055808552600e845282852087865290935292819020839055516000805160206135d68339815191529261194a929186908690613401565b60405180910390a15050565b600f54611964906001613513565b6000838152600d60209081526040808320600f805485529083529281902060020193909355825160a081019093529054808352908201906119a6906001613513565b815260200160008152602001336001600160a01b0316815260200182815250600d60008481526020019081526020016000206000600f5460016119e99190613513565b81526020808201929092526040908101600020835181559183015160018084019190915590830151600283015560608301516003830180546001600160a01b0319166001600160a01b03909216919091179055608090920151600490910155600f54611a5491613513565b336000908152600e60209081526040808320868452909152902055600f546000191415611a85576001600f55611a9b565b600f8054906000611a9583613581565b91905055505b6000805160206135d683398151915233600f54848460405161194a9493929190613401565b8160011415611d22576000828152600d60209081526040808320838052909152902060020154611bb8576000828152600d6020908152604080832083805280835281842060016002918201819055835160a0810185528681528086018281528186018881523360608401818152608085018c8152868c52978a52888b2094518555925184860155905194830194909455516003820180546001600160a01b0319166001600160a01b0390921691909117905592516004909301929092556010829055808552600e845282852087865290935292819020839055516000805160206135d68339815191529261194a929186908690613401565b601054611bc6906001613513565b6000838152600d602090815260408083206010805485529083529281902060020193909355825160a08101909352905480835290820190611c08906001613513565b815260200160008152602001336001600160a01b0316815260200182815250600d600084815260200190815260200160002060006010546001611c4b9190613513565b81526020808201929092526040908101600020835181559183015160018084019190915590830151600283015560608301516003830180546001600160a01b0319166001600160a01b03909216919091179055608090920151600490910155601054611cb691613513565b336000908152600e60209081526040808320868452909152902055600f546000191415611ce7576001600f55611cfd565b600f8054906000611cf783613581565b91905055505b6000805160206135d683398151915233601054848460405161194a9493929190613401565b6000828152600d60209081526040808320838052909152902060020154611e11576000828152600d6020908152604080832083805280835281842060016002918201819055835160a0810185528681528086018281528186018881523360608401818152608085018c8152868c52978a52888b2094518555925184860155905194830194909455516003820180546001600160a01b0319166001600160a01b0390921691909117905592516004909301929092556011829055808552600e845282852087865290935292819020839055516000805160206135d68339815191529261194a929186908690613401565b601154611e1f906001613513565b6000838152600d602090815260408083206011805485529083529281902060020193909355825160a08101909352905480835290820190611e61906001613513565b815260200160008152602001336001600160a01b0316815260200182815250600d600084815260200190815260200160002060006011546001611ea49190613513565b81526020808201929092526040908101600020835181559183015160018084019190915590830151600283015560608301516003830180546001600160a01b0319166001600160a01b03909216919091179055608090920151600490910155601154611f0f91613513565b336000908152600e60209081526040808320868452909152902055600f546000191415611f40576001600f55611f56565b600f8054906000611f5083613581565b91905055505b6000805160206135d683398151915233601154848460405161194a9493929190613401565b5050565b6000546001600160a01b03163314611fa95760405162461bcd60e51b815260040161072d90613482565b601280546001600160a01b0319166001600160a01b0392909216919091179055565b600060026001541415611ff05760405162461bcd60e51b815260040161072d906134dc565b6002600155611ffd6130f6565b60008361200d575060055461203b565b836001141561202a57600580546120239161354b565b905061203b565b60055461203890600a61354b565b90505b8315806120485750836001145b806120535750836002145b61206f5760405162461bcd60e51b815260040161072d906134b7565b612079818461354b565b85146120c15760405162461bcd60e51b815260206004820152601760248201527609a9e9c8ab240829a9eaa9ca8409aaaa6a8409a82a8869604b1b604482015260640161072d565b60035460048054604051627eeac760e11b81526001600160a01b039182169281019290925260248201879052600092169062fdd58e9060440160206040518083038186803b15801561211257600080fd5b505afa158015612126573d6000803e3d6000fd5b505050506040513d601f19601f8201168201806040525081019061214a9190613365565b90508084111561218b5760405162461bcd60e51b815260206004820152600c60248201526b4f5554204f462053544f434b60a01b604482015260640161072d565b6002546040516323b872dd60e01b8152336004820152306024820152604481018890526001600160a01b03909116906323b872dd90606401602060405180830381600087803b1580156121dd57600080fd5b505af11580156121f1573d6000803e3d6000fd5b505050506040513d601f19601f8201168201806040525081019061221591906132f9565b508361221f613257565b8661228657506000868152600d60209081526040808320838052825291829020825160a0810184528154815260018201549281019290925260028101549282019290925260038201546001600160a01b03166060820152600490910154608082015261234f565b86600114156122f157506000868152600d60209081526040808320838052825291829020825160a0810184528154815260018201549281019290925260028101549282019290925260038201546001600160a01b03166060820152600490910154608082015261234f565b506000868152600d60209081526040808320838052825291829020825160a0810184528154815260018201549281019290925260028101549282019290925260038201546001600160a01b0316606082015260049091015460808201525b6000878152600d6020908152604080832084820151845290915290205b8215612e7c576123a36040518060400160405280600f81526020016e02a37b5b2b71020b6b7bab73a101d1608d1b815250846131f6565b80600401548311156127e55760646009548260040154876123c4919061354b565b6123ce919061354b565b6123d8919061352b565b600a60008282546123e99190613513565b90915550506009546004820154600091606491612406908961354b565b612410919061354b565b61241a919061352b565b6004830154612429908861354b565b612433919061356a565b9050816004015484612445919061356a565b935061248a6040518060400160405280601b81526020017f425559494e472046524f4d203e2053454c4c455220544f4b454e20000000000081525083600401546131f6565b6004820180546000909155896124cd57600f54836001015414156124c85760008a8152600d60209081526040808320600f8054855292529091205490555b612536565b896001141561250857601054836001015414156124c85760008a8152600d602090815260408083206010805485529252909120549055612536565b601154836001015414156125365760008a8152600d6020908152604080832060118054855292529091205490555b60008a8152600d602090815260408083206001870180548552908352818420805460029182015481875284872090920182905591548552828520548186528386205560038801546001600160a01b03168552600c9093529083208054919386926125a1908490613513565b909155505060008c8152600d602090815260408083206002890154845290915290208c61262857600386015460018701546040805191825260208201819052600090820152339186916001600160a01b03909116907eb6f1e849d186007f898f498d9a48c11d07f3c0dfdd82bcc8fa87b27b9ff361906060015b60405180910390a46126e3565b8c6001141561268957600386015460018701546040805191825260208201819052600090820152339186916001600160a01b03909116907f739608ffdf96b378f3818a242176f428d0e923be9d919af0a1f994e4786397eb9060600161261b565b60038601546001870154604080519182526020820181905260008282015251339287926001600160a01b03909116917fb2cf5e77238df7b18848dd3423e73b288bf1ac06434a9b7b75df219bd807f35a9181900360600190a45b600e60008760030160009054906101000a90046001600160a01b03166001600160a01b03166001600160a01b0316815260200190815260200160002060008e815260200190815260200160002060009055600d60008e8152602001908152602001600020600087600101548152602001908152602001600020600080820160009055600182016000905560028201600090556003820160006101000a8154906001600160a01b030219169055600482016000905550508095506127db6040518060400160405280601981526020017f425559494e472046524f4d203e20425559455220544f4b454e00000000000000815250896131f6565b505050505061236c565b8060040154831015612a6457600954606490612801858861354b565b61280b919061354b565b612815919061352b565b600a60008282546128269190613513565b909155505060095460009060649061283e868961354b565b612848919061354b565b612852919061352b565b61285c858861354b565b612866919061356a565b9050600084905084836004016000828254612881919061356a565b909155505060038301546001600160a01b03166000908152600c602052604081208054919650839187906128b6908490613513565b90915550508961292057600383015460018401546040805191825260208201819052600090820152339183916001600160a01b03909116907eb6f1e849d186007f898f498d9a48c11d07f3c0dfdd82bcc8fa87b27b9ff361906060015b60405180910390a46129db565b896001141561298157600383015460018401546040805191825260208201819052600090820152339183916001600160a01b03909116907f739608ffdf96b378f3818a242176f428d0e923be9d919af0a1f994e4786397eb90606001612913565b60038301546001840154604080519182526020820181905260008282015251339284926001600160a01b03909116917fb2cf5e77238df7b18848dd3423e73b288bf1ac06434a9b7b75df219bd807f35a9181900360600190a45b612a1e6040518060400160405280601b81526020017f425559494e472046524f4d203c2053454c4c455220544f4b454e20000000000081525084600401546131f6565b612a5d6040518060400160405280601981526020017f425559494e472046524f4d203c20425559455220544f4b454e00000000000000815250866131f6565b505061236c565b8060040154831415612e77576064600954826004015487612a85919061354b565b612a8f919061354b565b612a99919061352b565b600a6000828254612aaa9190613513565b90915550506009546004820154600091606491612ac7908961354b565b612ad1919061354b565b612adb919061352b565b6004830154612aea908861354b565b612af4919061356a565b600483015460408051808201909152601a81527f425559494e472046524f4d203d2053454c4c455220544f4b454e00000000000060208201526000965091925090612b3f90826131f6565b60006004840181905560038401546001600160a01b03168152600c602052604081208054849290612b71908490613513565b909155505089612bae57600f5483600101541415612ba95760008a8152600d60209081526040808320600f8054855292529091205490555b612c17565b8960011415612be95760105483600101541415612ba95760008a8152600d602090815260408083206010805485529252909120549055612c17565b60115483600101541415612c175760008a8152600d6020908152604080832060118054855292529091205490555b60008a8152600d60209081526040808320600187018054855292528083208054600291820154818652838620830181905593548552828520548486528386205590870154845292208c612cc457600386015460018701546040805191825260208201819052600090820152339186916001600160a01b03909116907eb6f1e849d186007f898f498d9a48c11d07f3c0dfdd82bcc8fa87b27b9ff361906060015b60405180910390a4612d7f565b8c60011415612d2557600386015460018701546040805191825260208201819052600090820152339186916001600160a01b03909116907f739608ffdf96b378f3818a242176f428d0e923be9d919af0a1f994e4786397eb90606001612cb7565b60038601546001870154604080519182526020820181905260008282015251339287926001600160a01b03909116917fb2cf5e77238df7b18848dd3423e73b288bf1ac06434a9b7b75df219bd807f35a9181900360600190a45b600e60008760030160009054906101000a90046001600160a01b03166001600160a01b03166001600160a01b0316815260200190815260200160002060008e815260200190815260200160002060009055600d60008e8152602001908152602001600020600087600101548152602001908152602001600020600080820160009055600182016000905560028201600090556003820160006101000a8154906001600160a01b030219169055600482016000905550508095506127db6040518060400160405280601981526020017f425559494e472046524f4d203d20425559455220544f4b454e00000000000000815250896131f6565b61236c565b60035460048054604051637921219560e11b81526001600160a01b039384169363f242432a93612eb6939091169133918e918e91016133c9565b600060405180830381600087803b158015612ed057600080fd5b505af1158015612ee4573d6000803e3d6000fd5b505060018080559b9a5050505050505050505050565b6000546001600160a01b03163314612f245760405162461bcd60e51b815260040161072d90613482565b6001600160a01b038116612f895760405162461bcd60e51b815260206004820152602660248201527f4f776e61626c653a206e6577206f776e657220697320746865207a65726f206160448201526564647265737360d01b606482015260840161072d565b612f92816131a6565b50565b612f9d613257565b612fa5613257565b8261301357506000828152600d602090815260408083208380528252808320600290810154845292819020815160a08101835281548152600182015493810193909352928301549082015260038201546001600160a01b0316606082015260049091015460808201526108b6565b826001141561308557506000828152600d602090815260408083208380528252808320600290810154845292819020815160a08101835281548152600182015493810193909352928301549082015260038201546001600160a01b0316606082015260049091015460808201526108b6565b82600314156108b65750506000908152600d602090815260408083208380528252808320600290810154845292819020815160a08101835281548152600182015493810193909352928301549082015260038201546001600160a01b03166060820152600490910154608082015290565b6008544211156111ec5760006018603c8060085442613115919061356a565b61311f919061352b565b613129919061352b565b613133919061352b565b90508015612f925760055460005b8281101561319f576103e860075460055461315c919061354b565b613166919061352b565b6131709083613513565b915062015180600860008282546131879190613513565b9091555081905061319781613581565b915050613141565b5060055550565b600080546001600160a01b038381166001600160a01b0319831681178455604051919092169283917f8be0079c531659141344cd1fd0a4f28419497f9722a3daafe3b4186f6b6457e09190a35050565b611f7b828260405160240161320c929190613427565b60408051601f198184030181529190526020810180516001600160e01b03166309710a9d60e41b17905280516a636f6e736f6c652e6c6f67602083016000808483855afa5050505050565b6040518060a0016040528060008152602001600081526020016000815260200160006001600160a01b03168152602001600081525090565b6000602082840312156132a0578081fd5b81356132ab816135b2565b9392505050565b600080604083850312156132c4578081fd5b82356132cf816135b2565b946020939093013593505050565b6000602082840312156132ee578081fd5b81356132ab816135c7565b60006020828403121561330a578081fd5b81516132ab816135c7565b60008060408385031215613327578182fd5b8235613332816135b2565b91506020830135613342816135b2565b809150509250929050565b60006020828403121561335e578081fd5b5035919050565b600060208284031215613376578081fd5b5051919050565b6000806040838503121561338f578182fd5b50508035926020909101359150565b6000806000606084860312156133b2578081fd5b505081359360208301359350604090920135919050565b6001600160a01b0394851681529290931660208301526040820152606081019190915260a06080820181905260009082015260c00190565b6001600160a01b0394909416845260208401929092526040830152606082015260800190565b6040815260008351806040840152815b818110156134545760208187018101516060868401015201613437565b818111156134655782606083860101525b50602083019390935250601f91909101601f191601606001919050565b6020808252818101527f4f776e61626c653a2063616c6c6572206973206e6f7420746865206f776e6572604082015260600190565b6020808252600b908201526a1393d50810531313d5d15160aa1b604082015260600190565b6020808252601f908201527f5265656e7472616e637947756172643a207265656e7472616e742063616c6c00604082015260600190565b600082198211156135265761352661359c565b500190565b60008261354657634e487b7160e01b81526012600452602481fd5b500490565b60008160001904831182151516156135655761356561359c565b500290565b60008282101561357c5761357c61359c565b500390565b60006000198214156135955761359561359c565b5060010190565b634e487b7160e01b600052601160045260246000fd5b6001600160a01b0381168114612f9257600080fd5b8015158114612f9257600080fdfe6ab0c0d6f398b4ef2ef303a1d9e3270349ccda6566f59107a0f2c3af79ef0734a26469706673582212200fef165fc01e0ecdeb48026baaae373ddc2f147b00b0f53263d2c81e12159db964736f6c63430008040033",
    "linkReferences": {},
    "deployedLinkReferences": {}
}