{
    "_format": "hh-sol-artifact-1",
    "contractName": "GainerMarketplace",
    "sourceName": "contracts/GainerMarketplace.sol",
    "abi": [
        {
            "inputs": [
                {
                    "internalType": "contract IERC20",
                    "name": "erc20token",
                    "type": "address"
                },
                {
                    "internalType": "uint256",
                    "name": "gainerNFTprice",
                    "type": "uint256"
                },
                {
                    "internalType": "uint256",
                    "name": "rebasePercentage",
                    "type": "uint256"
                },
                {
                    "internalType": "uint256",
                    "name": "transactionFee",
                    "type": "uint256"
                }
            ],
            "stateMutability": "nonpayable",
            "type": "constructor"
        },
        {
            "anonymous": false,
            "inputs": [
                {
                    "indexed": false,
                    "internalType": "address",
                    "name": "sellerAddr",
                    "type": "address"
                },
                {
                    "indexed": false,
                    "internalType": "uint256",
                    "name": "listingId",
                    "type": "uint256"
                },
                {
                    "indexed": false,
                    "internalType": "uint256",
                    "name": "tokenId",
                    "type": "uint256"
                },
                {
                    "indexed": false,
                    "internalType": "uint256",
                    "name": "amount",
                    "type": "uint256"
                }
            ],
            "name": "AddListing",
            "type": "event"
        },
        {
            "anonymous": false,
            "inputs": [
                {
                    "indexed": true,
                    "internalType": "address",
                    "name": "sellerAddr",
                    "type": "address"
                },
                {
                    "indexed": false,
                    "internalType": "uint256",
                    "name": "listingId",
                    "type": "uint256"
                },
                {
                    "indexed": true,
                    "internalType": "uint256",
                    "name": "amount",
                    "type": "uint256"
                },
                {
                    "indexed": true,
                    "internalType": "address",
                    "name": "buyerAddr",
                    "type": "address"
                }
            ],
            "name": "DoneTrxGainerFive",
            "type": "event"
        },
        {
            "anonymous": false,
            "inputs": [
                {
                    "indexed": true,
                    "internalType": "address",
                    "name": "sellerAddr",
                    "type": "address"
                },
                {
                    "indexed": false,
                    "internalType": "uint256",
                    "name": "listingId",
                    "type": "uint256"
                },
                {
                    "indexed": true,
                    "internalType": "uint256",
                    "name": "amount",
                    "type": "uint256"
                },
                {
                    "indexed": true,
                    "internalType": "address",
                    "name": "buyerAddr",
                    "type": "address"
                }
            ],
            "name": "DoneTrxGainerOne",
            "type": "event"
        },
        {
            "anonymous": false,
            "inputs": [
                {
                    "indexed": true,
                    "internalType": "address",
                    "name": "sellerAddr",
                    "type": "address"
                },
                {
                    "indexed": false,
                    "internalType": "uint256",
                    "name": "listingId",
                    "type": "uint256"
                },
                {
                    "indexed": true,
                    "internalType": "uint256",
                    "name": "amount",
                    "type": "uint256"
                },
                {
                    "indexed": true,
                    "internalType": "address",
                    "name": "buyerAddr",
                    "type": "address"
                }
            ],
            "name": "DoneTrxGainerTen",
            "type": "event"
        },
        {
            "anonymous": false,
            "inputs": [
                {
                    "indexed": false,
                    "internalType": "address",
                    "name": "sellerAddr",
                    "type": "address"
                },
                {
                    "indexed": false,
                    "internalType": "uint256",
                    "name": "listingId",
                    "type": "uint256"
                },
                {
                    "indexed": false,
                    "internalType": "uint256",
                    "name": "tokenId",
                    "type": "uint256"
                },
                {
                    "indexed": false,
                    "internalType": "uint256",
                    "name": "amount",
                    "type": "uint256"
                },
                {
                    "indexed": false,
                    "internalType": "uint256",
                    "name": "prevListingId",
                    "type": "uint256"
                }
            ],
            "name": "ModifyListing",
            "type": "event"
        },
        {
            "anonymous": false,
            "inputs": [
                {
                    "indexed": true,
                    "internalType": "address",
                    "name": "previousOwner",
                    "type": "address"
                },
                {
                    "indexed": true,
                    "internalType": "address",
                    "name": "newOwner",
                    "type": "address"
                }
            ],
            "name": "OwnershipTransferred",
            "type": "event"
        },
        {
            "inputs": [
                {
                    "internalType": "uint256",
                    "name": "",
                    "type": "uint256"
                },
                {
                    "internalType": "uint256",
                    "name": "",
                    "type": "uint256"
                }
            ],
            "name": "Listing",
            "outputs": [
                {
                    "internalType": "uint256",
                    "name": "prev",
                    "type": "uint256"
                },
                {
                    "internalType": "uint256",
                    "name": "selfIndex",
                    "type": "uint256"
                },
                {
                    "internalType": "uint256",
                    "name": "next",
                    "type": "uint256"
                },
                {
                    "internalType": "address",
                    "name": "sellerAddr",
                    "type": "address"
                },
                {
                    "internalType": "uint256",
                    "name": "amount",
                    "type": "uint256"
                }
            ],
            "stateMutability": "view",
            "type": "function"
        },
        {
            "inputs": [
                {
                    "internalType": "address",
                    "name": "",
                    "type": "address"
                },
                {
                    "internalType": "uint256",
                    "name": "",
                    "type": "uint256"
                }
            ],
            "name": "UserListing",
            "outputs": [
                {
                    "internalType": "uint256",
                    "name": "",
                    "type": "uint256"
                }
            ],
            "stateMutability": "view",
            "type": "function"
        },
        {
            "inputs": [],
            "name": "_erc20token",
            "outputs": [
                {
                    "internalType": "contract IERC20",
                    "name": "",
                    "type": "address"
                }
            ],
            "stateMutability": "view",
            "type": "function"
        },
        {
            "inputs": [],
            "name": "_feeCollector",
            "outputs": [
                {
                    "internalType": "uint256",
                    "name": "",
                    "type": "uint256"
                }
            ],
            "stateMutability": "view",
            "type": "function"
        },
        {
            "inputs": [],
            "name": "_gainerFiveGiveAwayAmount",
            "outputs": [
                {
                    "internalType": "uint256",
                    "name": "",
                    "type": "uint256"
                }
            ],
            "stateMutability": "view",
            "type": "function"
        },
        {
            "inputs": [],
            "name": "_gainerNFT",
            "outputs": [
                {
                    "internalType": "contract IERC1155",
                    "name": "",
                    "type": "address"
                }
            ],
            "stateMutability": "view",
            "type": "function"
        },
        {
            "inputs": [],
            "name": "_gainerOneGiveAwayAmount",
            "outputs": [
                {
                    "internalType": "uint256",
                    "name": "",
                    "type": "uint256"
                }
            ],
            "stateMutability": "view",
            "type": "function"
        },
        {
            "inputs": [],
            "name": "_gainerTenGiveAwayAmount",
            "outputs": [
                {
                    "internalType": "uint256",
                    "name": "",
                    "type": "uint256"
                }
            ],
            "stateMutability": "view",
            "type": "function"
        },
        {
            "inputs": [],
            "name": "_giveAwayWalletAddr",
            "outputs": [
                {
                    "internalType": "address",
                    "name": "",
                    "type": "address"
                }
            ],
            "stateMutability": "view",
            "type": "function"
        },
        {
            "inputs": [],
            "name": "_isClaimOpen",
            "outputs": [
                {
                    "internalType": "bool",
                    "name": "",
                    "type": "bool"
                }
            ],
            "stateMutability": "view",
            "type": "function"
        },
        {
            "inputs": [],
            "name": "_otherERC20Token",
            "outputs": [
                {
                    "internalType": "contract IERC20",
                    "name": "",
                    "type": "address"
                }
            ],
            "stateMutability": "view",
            "type": "function"
        },
        {
            "inputs": [],
            "name": "_protocolWalletAddr",
            "outputs": [
                {
                    "internalType": "address",
                    "name": "",
                    "type": "address"
                }
            ],
            "stateMutability": "view",
            "type": "function"
        },
        {
            "inputs": [],
            "name": "_rebasePercentage",
            "outputs": [
                {
                    "internalType": "uint256",
                    "name": "",
                    "type": "uint256"
                }
            ],
            "stateMutability": "view",
            "type": "function"
        },
        {
            "inputs": [],
            "name": "_transactionFee",
            "outputs": [
                {
                    "internalType": "uint256",
                    "name": "",
                    "type": "uint256"
                }
            ],
            "stateMutability": "view",
            "type": "function"
        },
        {
            "inputs": [
                {
                    "internalType": "address",
                    "name": "",
                    "type": "address"
                }
            ],
            "name": "_userClaimGiveAway",
            "outputs": [
                {
                    "internalType": "bool",
                    "name": "",
                    "type": "bool"
                }
            ],
            "stateMutability": "view",
            "type": "function"
        },
        {
            "inputs": [
                {
                    "internalType": "address",
                    "name": "",
                    "type": "address"
                }
            ],
            "name": "_userErc20TokenBalanceInGainerProtocol",
            "outputs": [
                {
                    "internalType": "uint256",
                    "name": "",
                    "type": "uint256"
                }
            ],
            "stateMutability": "view",
            "type": "function"
        },
        {
            "inputs": [
                {
                    "internalType": "uint256",
                    "name": "tokenId",
                    "type": "uint256"
                },
                {
                    "internalType": "uint256",
                    "name": "amount",
                    "type": "uint256"
                }
            ],
            "name": "addListingNFT",
            "outputs": [],
            "stateMutability": "nonpayable",
            "type": "function"
        },
        {
            "inputs": [
                {
                    "internalType": "uint256",
                    "name": "moneyAmount",
                    "type": "uint256"
                },
                {
                    "internalType": "uint256",
                    "name": "tokenId",
                    "type": "uint256"
                },
                {
                    "internalType": "uint256",
                    "name": "tokenAmount",
                    "type": "uint256"
                }
            ],
            "name": "buyNFT",
            "outputs": [],
            "stateMutability": "nonpayable",
            "type": "function"
        },
        {
            "inputs": [
                {
                    "internalType": "uint256",
                    "name": "moneyAmount",
                    "type": "uint256"
                },
                {
                    "internalType": "uint256",
                    "name": "tokenId",
                    "type": "uint256"
                },
                {
                    "internalType": "uint256",
                    "name": "tokenAmount",
                    "type": "uint256"
                }
            ],
            "name": "buyNFTFromGainerProtocol",
            "outputs": [],
            "stateMutability": "nonpayable",
            "type": "function"
        },
        {
            "inputs": [
                {
                    "internalType": "uint256",
                    "name": "tokenId",
                    "type": "uint256"
                }
            ],
            "name": "cancelListing",
            "outputs": [],
            "stateMutability": "nonpayable",
            "type": "function"
        },
        {
            "inputs": [
                {
                    "internalType": "uint256",
                    "name": "tokenId",
                    "type": "uint256"
                }
            ],
            "name": "checkLastListing",
            "outputs": [
                {
                    "components": [
                        {
                            "internalType": "uint256",
                            "name": "prev",
                            "type": "uint256"
                        },
                        {
                            "internalType": "uint256",
                            "name": "selfIndex",
                            "type": "uint256"
                        },
                        {
                            "internalType": "uint256",
                            "name": "next",
                            "type": "uint256"
                        },
                        {
                            "internalType": "address",
                            "name": "sellerAddr",
                            "type": "address"
                        },
                        {
                            "internalType": "uint256",
                            "name": "amount",
                            "type": "uint256"
                        }
                    ],
                    "internalType": "struct GainerMarketplace.NFTListing",
                    "name": "",
                    "type": "tuple"
                }
            ],
            "stateMutability": "view",
            "type": "function"
        },
        {
            "inputs": [
                {
                    "internalType": "uint256",
                    "name": "tokenId",
                    "type": "uint256"
                }
            ],
            "name": "checkTopListing",
            "outputs": [
                {
                    "components": [
                        {
                            "internalType": "uint256",
                            "name": "prev",
                            "type": "uint256"
                        },
                        {
                            "internalType": "uint256",
                            "name": "selfIndex",
                            "type": "uint256"
                        },
                        {
                            "internalType": "uint256",
                            "name": "next",
                            "type": "uint256"
                        },
                        {
                            "internalType": "address",
                            "name": "sellerAddr",
                            "type": "address"
                        },
                        {
                            "internalType": "uint256",
                            "name": "amount",
                            "type": "uint256"
                        }
                    ],
                    "internalType": "struct GainerMarketplace.NFTListing",
                    "name": "",
                    "type": "tuple"
                }
            ],
            "stateMutability": "view",
            "type": "function"
        },
        {
            "inputs": [],
            "name": "claimGiveAway",
            "outputs": [],
            "stateMutability": "nonpayable",
            "type": "function"
        },
        {
            "inputs": [],
            "name": "headGainerFive",
            "outputs": [
                {
                    "internalType": "uint256",
                    "name": "",
                    "type": "uint256"
                }
            ],
            "stateMutability": "view",
            "type": "function"
        },
        {
            "inputs": [],
            "name": "headGainerOne",
            "outputs": [
                {
                    "internalType": "uint256",
                    "name": "",
                    "type": "uint256"
                }
            ],
            "stateMutability": "view",
            "type": "function"
        },
        {
            "inputs": [],
            "name": "headGainerTen",
            "outputs": [
                {
                    "internalType": "uint256",
                    "name": "",
                    "type": "uint256"
                }
            ],
            "stateMutability": "view",
            "type": "function"
        },
        {
            "inputs": [
                {
                    "internalType": "uint256",
                    "name": "tokenId",
                    "type": "uint256"
                },
                {
                    "internalType": "uint256",
                    "name": "head",
                    "type": "uint256"
                }
            ],
            "name": "isListingEmpty",
            "outputs": [
                {
                    "internalType": "bool",
                    "name": "",
                    "type": "bool"
                }
            ],
            "stateMutability": "view",
            "type": "function"
        },
        {
            "inputs": [
                {
                    "internalType": "uint256",
                    "name": "tokenId",
                    "type": "uint256"
                }
            ],
            "name": "isUserListingEmpty",
            "outputs": [
                {
                    "internalType": "bool",
                    "name": "",
                    "type": "bool"
                }
            ],
            "stateMutability": "view",
            "type": "function"
        },
        {
            "inputs": [
                {
                    "internalType": "address",
                    "name": "",
                    "type": "address"
                },
                {
                    "internalType": "address",
                    "name": "",
                    "type": "address"
                },
                {
                    "internalType": "uint256[]",
                    "name": "",
                    "type": "uint256[]"
                },
                {
                    "internalType": "uint256[]",
                    "name": "",
                    "type": "uint256[]"
                },
                {
                    "internalType": "bytes",
                    "name": "",
                    "type": "bytes"
                }
            ],
            "name": "onERC1155BatchReceived",
            "outputs": [
                {
                    "internalType": "bytes4",
                    "name": "",
                    "type": "bytes4"
                }
            ],
            "stateMutability": "nonpayable",
            "type": "function"
        },
        {
            "inputs": [
                {
                    "internalType": "address",
                    "name": "",
                    "type": "address"
                },
                {
                    "internalType": "address",
                    "name": "",
                    "type": "address"
                },
                {
                    "internalType": "uint256",
                    "name": "",
                    "type": "uint256"
                },
                {
                    "internalType": "uint256",
                    "name": "",
                    "type": "uint256"
                },
                {
                    "internalType": "bytes",
                    "name": "",
                    "type": "bytes"
                }
            ],
            "name": "onERC1155Received",
            "outputs": [
                {
                    "internalType": "bytes4",
                    "name": "",
                    "type": "bytes4"
                }
            ],
            "stateMutability": "nonpayable",
            "type": "function"
        },
        {
            "inputs": [],
            "name": "owner",
            "outputs": [
                {
                    "internalType": "address",
                    "name": "",
                    "type": "address"
                }
            ],
            "stateMutability": "view",
            "type": "function"
        },
        {
            "inputs": [],
            "name": "renounceOwnership",
            "outputs": [],
            "stateMutability": "nonpayable",
            "type": "function"
        },
        {
            "inputs": [
                {
                    "internalType": "contract IERC20",
                    "name": "erc20token",
                    "type": "address"
                }
            ],
            "name": "setERC20Token",
            "outputs": [],
            "stateMutability": "nonpayable",
            "type": "function"
        },
        {
            "inputs": [
                {
                    "internalType": "contract IERC1155",
                    "name": "gainerNFTaddr",
                    "type": "address"
                }
            ],
            "name": "setGainerNFTAddr",
            "outputs": [],
            "stateMutability": "nonpayable",
            "type": "function"
        },
        {
            "inputs": [
                {
                    "internalType": "uint256",
                    "name": "price",
                    "type": "uint256"
                }
            ],
            "name": "setGainerNFTPrice",
            "outputs": [],
            "stateMutability": "nonpayable",
            "type": "function"
        },
        {
            "inputs": [
                {
                    "internalType": "address",
                    "name": "giveAwayWalletAddr",
                    "type": "address"
                }
            ],
            "name": "setGiveAwayWalletAddr",
            "outputs": [],
            "stateMutability": "nonpayable",
            "type": "function"
        },
        {
            "inputs": [
                {
                    "internalType": "uint256",
                    "name": "gainerOneGiveAwayAmount",
                    "type": "uint256"
                },
                {
                    "internalType": "uint256",
                    "name": "gainerFiveGiveAwayAmount",
                    "type": "uint256"
                },
                {
                    "internalType": "uint256",
                    "name": "gainerTenGiveAwayAmount",
                    "type": "uint256"
                }
            ],
            "name": "setNFTGiveAwayAmount",
            "outputs": [],
            "stateMutability": "nonpayable",
            "type": "function"
        },
        {
            "inputs": [
                {
                    "internalType": "contract IERC20",
                    "name": "addr",
                    "type": "address"
                }
            ],
            "name": "setOtherERC20Token",
            "outputs": [],
            "stateMutability": "nonpayable",
            "type": "function"
        },
        {
            "inputs": [
                {
                    "internalType": "address",
                    "name": "protocolWalletAddr",
                    "type": "address"
                }
            ],
            "name": "setProtocolWalletAddr",
            "outputs": [],
            "stateMutability": "nonpayable",
            "type": "function"
        },
        {
            "inputs": [
                {
                    "internalType": "uint256",
                    "name": "percentage",
                    "type": "uint256"
                }
            ],
            "name": "setRebasePercentage",
            "outputs": [],
            "stateMutability": "nonpayable",
            "type": "function"
        },
        {
            "inputs": [
                {
                    "internalType": "bool",
                    "name": "status",
                    "type": "bool"
                }
            ],
            "name": "setStatusGiveaway",
            "outputs": [],
            "stateMutability": "nonpayable",
            "type": "function"
        },
        {
            "inputs": [
                {
                    "internalType": "uint256",
                    "name": "fee",
                    "type": "uint256"
                }
            ],
            "name": "setTransactionFee",
            "outputs": [],
            "stateMutability": "nonpayable",
            "type": "function"
        },
        {
            "inputs": [
                {
                    "internalType": "uint256",
                    "name": "nextDay",
                    "type": "uint256"
                }
            ],
            "name": "setupDay",
            "outputs": [],
            "stateMutability": "nonpayable",
            "type": "function"
        },
        {
            "inputs": [],
            "name": "showOtherERC20Token",
            "outputs": [
                {
                    "internalType": "contract IERC20",
                    "name": "",
                    "type": "address"
                }
            ],
            "stateMutability": "view",
            "type": "function"
        },
        {
            "inputs": [],
            "name": "showPrice",
            "outputs": [
                {
                    "internalType": "uint256",
                    "name": "",
                    "type": "uint256"
                }
            ],
            "stateMutability": "view",
            "type": "function"
        },
        {
            "inputs": [
                {
                    "internalType": "bytes4",
                    "name": "interfaceId",
                    "type": "bytes4"
                }
            ],
            "name": "supportsInterface",
            "outputs": [
                {
                    "internalType": "bool",
                    "name": "",
                    "type": "bool"
                }
            ],
            "stateMutability": "view",
            "type": "function"
        },
        {
            "inputs": [],
            "name": "tailGainerFive",
            "outputs": [
                {
                    "internalType": "uint256",
                    "name": "",
                    "type": "uint256"
                }
            ],
            "stateMutability": "view",
            "type": "function"
        },
        {
            "inputs": [],
            "name": "tailGainerOne",
            "outputs": [
                {
                    "internalType": "uint256",
                    "name": "",
                    "type": "uint256"
                }
            ],
            "stateMutability": "view",
            "type": "function"
        },
        {
            "inputs": [],
            "name": "tailGainerTen",
            "outputs": [
                {
                    "internalType": "uint256",
                    "name": "",
                    "type": "uint256"
                }
            ],
            "stateMutability": "view",
            "type": "function"
        },
        {
            "inputs": [],
            "name": "transferOtherERC20Token",
            "outputs": [],
            "stateMutability": "nonpayable",
            "type": "function"
        },
        {
            "inputs": [
                {
                    "internalType": "address",
                    "name": "newOwner",
                    "type": "address"
                }
            ],
            "name": "transferOwnership",
            "outputs": [],
            "stateMutability": "nonpayable",
            "type": "function"
        },
        {
            "inputs": [],
            "name": "withdrawFeeTransaction",
            "outputs": [],
            "stateMutability": "nonpayable",
            "type": "function"
        },
        {
            "inputs": [],
            "name": "withdrawUserERC20Token",
            "outputs": [],
            "stateMutability": "nonpayable",
            "type": "function"
        }
    ],
    "bytecode": "0x60806040526000600d556000600e556000600f553480156200002057600080fd5b5060405162003ead38038062003ead8339810160408190526200004391620000d5565b6200004e3362000085565b60018055600280546001600160a01b0319166001600160a01b03959095169490941790935560049190915560055560075562000120565b600080546001600160a01b038381166001600160a01b0319831681178455604051919092169283917f8be0079c531659141344cd1fd0a4f28419497f9722a3daafe3b4186f6b6457e09190a35050565b60008060008060808587031215620000eb578384fd5b84516001600160a01b038116811462000102578485fd5b60208601516040870151606090970151919890975090945092505050565b613d7d80620001306000396000f3fe608060405234801561001057600080fd5b50600436106103275760003560e01c80636f302bb9116101b85780639b40490511610104578063de562487116100a2578063f071188e1161007c578063f071188e14610594578063f23a6e611461078c578063f2fde38b146107ab578063f4ccbe07146107be57600080fd5b8063de5624871461075d578063e4b70b4214610770578063e655e15d1461078357600080fd5b8063bc197c81116100de578063bc197c8114610687578063cb124e1d146106bf578063d2d41d64146106d2578063d5d360171461075457600080fd5b80639b404905146106515780639dc58e8114610664578063a3cf8b281461059457600080fd5b806382a6e568116101715780638da5cb5b1161014b5780638da5cb5b146106125780638e0e0abb146106235780638e838ea41461062b57806396bb3d9c1461063e57600080fd5b806382a6e568146105ee57806382cbb41f1461060157806386514a751461060957600080fd5b80636f302bb91461059c5780637002372f146105a5578063715018a6146105ad5780637ba2597d146105b55780637c87b694146105c85780637e10f42e146105db57600080fd5b80632998fca3116102775780634b8e31a21161023057806354ef2fad1161020a57806354ef2fad1461057657806364f98b531461057f5780636956491b1461058c5780636b13b8871461059457600080fd5b80634b8e31a21461052f57806351a4a3311461054257806352aa0b4d1461056e57600080fd5b80632998fca3146104c95780632b17730e146104da578063305a67a8146104ed5780633191f5e714610500578063350013a7146105135780633ed4df021461052657600080fd5b806317b7c544116102e4578063209d407a116102be578063209d407a14610453578063226b5cea1461047e578063273cc9381461049157806327d5909d1461049a57600080fd5b806317b7c544146103de5780631d2b381e146103e75780631ef2da5b1461044057600080fd5b806301ffc9a71461032c5780630827b08914610354578063096a8ab7146103825780630b2c1f3e146103975780630b945263146103c257806315443afc146103cb575b600080fd5b61033f61033a366004613a2b565b6107d1565b60405190151581526020015b60405180910390f35b610374610362366004613894565b600a6020526000908152604090205481565b60405190815260200161034b565b610395610390366004613a53565b610808565b005b6016546103aa906001600160a01b031681565b6040516001600160a01b03909116815260200161034b565b610374600f5481565b6103956103d9366004613894565b610840565b61037460055481565b6103fa6103f5366004613a53565b61088c565b60405161034b91908151815260208083015190820152604080830151908201526060808301516001600160a01b0316908201526080918201519181019190915260a00190565b61039561044e366004613a53565b6109ed565b6103746104613660046139c8565b600c60209081526000928352604080842090915290825290205481565b61039561048c3660046139f3565b610a1c565b610374600d5481565b61033f6104a8366004613a83565b6000918252600b602090815260408084209284529190529020600201541590565b6016546001600160a01b03166103aa565b6103956104e8366004613a53565b610a59565b6103956104fb366004613a53565b610a88565b6010546103aa906001600160a01b031681565b610395610521366004613aa4565b610e35565b61037460155481565b6002546103aa906001600160a01b031681565b61033f610550366004613a53565b336000908152600c6020908152604080832093835292905220541590565b61039561132a565b61037460085481565b60125461033f9060ff1681565b610395611443565b610374600081565b61037460075481565b610395611544565b6103956116ba565b6103956105c3366004613aa4565b6116f0565b6103956105d6366004613894565b611728565b6003546103aa906001600160a01b031681565b6009546103aa906001600160a01b031681565b610395611774565b61037460135481565b6000546001600160a01b03166103aa565b610374611b79565b610395610639366004613894565b611c1e565b61039561064c366004613a53565b611c6a565b61039561065f366004613a83565b611c99565b61033f610672366004613894565b60116020526000908152604090205460ff1681565b6106a66106953660046138b7565b63bc197c8160e01b95945050505050565b6040516001600160e01b0319909116815260200161034b565b6103956106cd366004613894565b612693565b6107236106e0366004613a83565b600b602090815260009283526040808420909152908252902080546001820154600283015460038401546004909401549293919290916001600160a01b03169085565b604080519586526020860194909452928401919091526001600160a01b03166060830152608082015260a00161034b565b61037460145481565b61039561076b366004613894565b6126df565b61039561077e366004613aa4565b61272b565b610374600e5481565b6106a661079a366004613961565b63f23a6e6160e01b95945050505050565b6103956107b9366004613894565b613472565b6103fa6107cc366004613a53565b61350d565b60006001600160e01b03198216630271189760e51b148061080257506301ffc9a760e01b6001600160e01b03198316145b92915050565b6000546001600160a01b0316331461083b5760405162461bcd60e51b815260040161083290613b2d565b60405180910390fd5b600755565b6000546001600160a01b0316331461086a5760405162461bcd60e51b815260040161083290613b2d565b600980546001600160a01b0319166001600160a01b0392909216919091179055565b61089461376e565b61089c61376e565b8261090a57506000828152600b60209081526040808320600d5484528252808320600190810154845292819020815160a08101835281548152938101549284019290925260028201549083015260038101546001600160a01b03166060830152600401546080820152610802565b826001141561097c57506000828152600b60209081526040808320600e5484528252808320600190810154845292819020815160a08101835281548152938101549284019290925260028201549083015260038101546001600160a01b03166060830152600401546080820152610802565b82600214156108025750506000908152600b60209081526040808320600f5484528252808320600190810154845292819020815160a08101835281548152938101549284019290925260028201549083015260038101546001600160a01b0316606083015260040154608082015290565b6000546001600160a01b03163314610a175760405162461bcd60e51b815260040161083290613b2d565b600455565b6000546001600160a01b03163314610a465760405162461bcd60e51b815260040161083290613b2d565b6012805460ff1916911515919091179055565b6000546001600160a01b03163314610a835760405162461bcd60e51b815260040161083290613b2d565b600655565b60026001541415610aab5760405162461bcd60e51b815260040161083290613b87565b6002600155336000908152600c60209081526040808320848452909152902054610b175760405162461bcd60e51b815260206004820152601760248201527f594f5520444f4e5420484156452041204c495354494e470000000000000000006044820152606401610832565b336000908152600c60209081526040808320848452825280832054600b835281842081855290925290912082610b7a57600d5481600101541415610b75576000838152600b60209081526040808320600d8054855292529091205490555b610be3565b8260011415610bb557600e5481600101541415610b75576000838152600b60209081526040808320600e805485529252909120549055610be3565b600f5481600101541415610be3576000838152600b60209081526040808320600f8054855292529091205490555b6000600b60008581526020019081526020016000206000836001015481526020019081526020016000206000015490506000600b6000868152602001908152602001600020600084600101548152602001908152602001600020600201549050600b600086815260200190815260200160002060008460010154815260200190815260200160002060020154600b6000878152602001908152602001600020600084815260200190815260200160002060020181905550600b600086815260200190815260200160002060008460010154815260200190815260200160002060000154600b6000878152602001908152602001600020600083815260200190815260200160002060000181905550600083600401549050600c60008560030160009054906101000a90046001600160a01b03166001600160a01b03166001600160a01b03168152602001908152602001600020600087815260200190815260200160002060009055600b6000878152602001908152602001600020600085600101548152602001908152602001600020600080820160009055600182016000905560028201600090556003820160006101000a8154906001600160a01b03021916905560048201600090555050600360009054906101000a90046001600160a01b03166001600160a01b031663f242432a303389856040518563ffffffff1660e01b8152600401610df79493929190613acf565b600060405180830381600087803b158015610e1157600080fd5b505af1158015610e25573d6000803e3d6000fd5b5050600180555050505050505050565b60026001541415610e585760405162461bcd60e51b815260040161083290613b87565b6002600155610e6561366e565b600082610e755750600454610ea4565b8260011415610e9357600454610e8c906005613c27565b9050610ea4565b600454610ea190600a613c27565b90505b821580610eb15750826001145b80610ebc5750826002145b610ed85760405162461bcd60e51b815260040161083290613b62565b610ee28183613c27565b8414610f235760405162461bcd60e51b815260206004820152601060248201526f09a9e9c8ab2409aaaa6a8409a82a886960831b6044820152606401610832565b6002546040516370a0823160e01b815233600482015285916001600160a01b0316906370a082319060240160206040518083038186803b158015610f6657600080fd5b505afa158015610f7a573d6000803e3d6000fd5b505050506040513d601f19601f82011682018060405250810190610f9e9190613a6b565b1015610fe45760405162461bcd60e51b8152602060048201526015602482015274494e53554646494349454e542042414c4c414e434560581b6044820152606401610832565b600254604051636eb1769f60e11b815233600482015230602482015285916001600160a01b03169063dd62ed3e9060440160206040518083038186803b15801561102d57600080fd5b505afa158015611041573d6000803e3d6000fd5b505050506040513d601f19601f820116820180604052508101906110659190613a6b565b10156110ab5760405162461bcd60e51b8152602060048201526015602482015274504c4541534520434845434b20414c4f57414e434560581b6044820152606401610832565b600354600954604051627eeac760e11b81526001600160a01b039182166004820152602481018690528492919091169062fdd58e9060440160206040518083038186803b1580156110fb57600080fd5b505afa15801561110f573d6000803e3d6000fd5b505050506040513d601f19601f820116820180604052508101906111339190613a6b565b10156111705760405162461bcd60e51b815260206004820152600c60248201526b4f5554204f462053544f434b60a01b6044820152606401610832565b6002546009546040516323b872dd60e01b81523360048201526001600160a01b039182166024820152604481018790529116906323b872dd90606401602060405180830381600087803b1580156111c657600080fd5b505af11580156111da573d6000803e3d6000fd5b505050506040513d601f19601f820116820180604052508101906111fe9190613a0f565b50600354600954604051637921219560e11b81526001600160a01b039283169263f242432a9261123992911690339088908890600401613acf565b600060405180830381600087803b15801561125357600080fd5b505af1158015611267573d6000803e3d6000fd5b5050505082600014156112af5760095460405160008152339184916001600160a01b0390911690600080516020613d08833981519152906020015b60405180910390a4611320565b82600114156112ea5760095460405160008152339184916001600160a01b0390911690600080516020613cc8833981519152906020016112a2565b60095460405160008152339184916001600160a01b0390911690600080516020613d288339815191529060200160405180910390a45b5050600180555050565b6002600154141561134d5760405162461bcd60e51b815260040161083290613b87565b6002600155336000908152600a6020526040902054806113a45760405162461bcd60e51b81526020600482015260126024820152714e6f7420656e617567682062616c616e636560701b6044820152606401610832565b336000818152600a602052604080822091909155600254905163a9059cbb60e01b81526004810192909252602482018390526001600160a01b03169063a9059cbb90604401602060405180830381600087803b15801561140357600080fd5b505af1158015611417573d6000803e3d6000fd5b505050506040513d601f19601f8201168201806040525081019061143b9190613a0f565b505060018055565b6000546001600160a01b0316331461146d5760405162461bcd60e51b815260040161083290613b2d565b6000600854116114b45760405162461bcd60e51b81526020600482015260126024820152714e4f5420454e415547482042414c414e434560701b6044820152606401610832565b60025460085460405163a9059cbb60e01b815233600482015260248101919091526001600160a01b039091169063a9059cbb90604401602060405180830381600087803b15801561150457600080fd5b505af1158015611518573d6000803e3d6000fd5b505050506040513d601f19601f8201168201806040525081019061153c9190613a0f565b506000600855565b6000546001600160a01b0316331461156e5760405162461bcd60e51b815260040161083290613b2d565b6016546040516370a0823160e01b81523060048201526000916001600160a01b0316906370a082319060240160206040518083038186803b1580156115b257600080fd5b505afa1580156115c6573d6000803e3d6000fd5b505050506040513d601f19601f820116820180604052508101906115ea9190613a6b565b9050600081116116325760405162461bcd60e51b8152602060048201526013602482015272125394d551919250d251539508105353d55395606a1b6044820152606401610832565b60165460405163a9059cbb60e01b8152336004820152602481018390526001600160a01b039091169063a9059cbb90604401602060405180830381600087803b15801561167e57600080fd5b505af1158015611692573d6000803e3d6000fd5b505050506040513d601f19601f820116820180604052508101906116b69190613a0f565b5050565b6000546001600160a01b031633146116e45760405162461bcd60e51b815260040161083290613b2d565b6116ee600061371e565b565b6000546001600160a01b0316331461171a5760405162461bcd60e51b815260040161083290613b2d565b601392909255601455601555565b6000546001600160a01b031633146117525760405162461bcd60e51b815260040161083290613b2d565b600380546001600160a01b0319166001600160a01b0392909216919091179055565b600260015414156117975760405162461bcd60e51b815260040161083290613b87565b600260015560125460ff166117e25760405162461bcd60e51b81526020600482015260116024820152701393d50810d31052535050931148165155607a1b6044820152606401610832565b600354601054604051627eeac760e11b81526001600160a01b03918216600482015260006024820181905292919091169062fdd58e9060440160206040518083038186803b15801561183357600080fd5b505afa158015611847573d6000803e3d6000fd5b505050506040513d601f19601f8201168201806040525081019061186b9190613a6b565b600354601054604051627eeac760e11b81526001600160a01b0391821660048201526001602482015292935060009291169062fdd58e9060440160206040518083038186803b1580156118bd57600080fd5b505afa1580156118d1573d6000803e3d6000fd5b505050506040513d601f19601f820116820180604052508101906118f59190613a6b565b600354601054604051627eeac760e11b81526001600160a01b0391821660048201526002602482015292935060009291169062fdd58e9060440160206040518083038186803b15801561194757600080fd5b505afa15801561195b573d6000803e3d6000fd5b505050506040513d601f19601f8201168201806040525081019061197f9190613a6b565b905060008311806119905750600082115b8061199b5750600081115b6119e75760405162461bcd60e51b815260206004820152601860248201527f414c4c204e46547320414c524541445920434c41494d454400000000000000006044820152606401610832565b3360009081526011602052604090205460ff16611b1a57336000908152601160205260409020805460ff191660011790558215611a9157600354601054601354604051637921219560e11b81526001600160a01b039384169363f242432a93611a5a939116913391600091600401613acf565b600060405180830381600087803b158015611a7457600080fd5b505af1158015611a88573d6000803e3d6000fd5b50505050611b70565b8115611ad357600354601054601454604051637921219560e11b81526001600160a01b039384169363f242432a93611a5a939116913391600191600401613acf565b8015611b1557600354601054601554604051637921219560e11b81526001600160a01b039384169363f242432a93611a5a939116913391600291600401613acf565b611b70565b3360009081526011602052604090205460ff1615611b705760405162461bcd60e51b81526020600482015260136024820152721653d548105314915051164810d31052535151606a1b6044820152606401610832565b50506001805550565b6000600654421115611c175760006018603c8060065442611b9a9190613c46565b611ba49190613c07565b611bae9190613c07565b611bb89190613c07565b905080611bc757505060045490565b60045460005b82811015611c10576103e8600554600454611be89190613c27565b611bf29190613c07565b611bfc9083613bef565b915080611c0881613c5d565b915050611bcd565b5092915050565b5060045490565b6000546001600160a01b03163314611c485760405162461bcd60e51b815260040161083290613b2d565b601680546001600160a01b0319166001600160a01b0392909216919091179055565b6000546001600160a01b03163314611c945760405162461bcd60e51b815260040161083290613b2d565b600555565b60026001541415611cbc5760405162461bcd60e51b815260040161083290613b87565b6002600155811580611cce5750816001145b80611cd95750816002145b611cf55760405162461bcd60e51b815260040161083290613b62565b336000908152600c6020908152604080832085845290915290205415611d5d5760405162461bcd60e51b815260206004820152601a60248201527f594f5520414c524541445920484156452041204c495354494e470000000000006044820152606401610832565b600354604051627eeac760e11b81523360048201526024810184905282916001600160a01b03169062fdd58e9060440160206040518083038186803b158015611da557600080fd5b505afa158015611db9573d6000803e3d6000fd5b505050506040513d601f19601f82011682018060405250810190611ddd9190613a6b565b1015611e1c5760405162461bcd60e51b815260206004820152600e60248201526d1393d5081153905551d20813919560921b6044820152606401610832565b60035460405163e985e9c560e01b81523360048201523060248201526001600160a01b039091169063e985e9c59060440160206040518083038186803b158015611e6557600080fd5b505afa158015611e79573d6000803e3d6000fd5b505050506040513d601f19601f82011682018060405250810190611e9d9190613a0f565b611ee95760405162461bcd60e51b815260206004820152601c60248201527f594f55204e45454420544f20415050524f5645204f50455241544f52000000006044820152606401610832565b611ef161366e565b600354604051637921219560e11b81526001600160a01b039091169063f242432a90611f27903390309087908790600401613acf565b600060405180830381600087803b158015611f4157600080fd5b505af1158015611f55573d6000803e3d6000fd5b5050505081600014156121c8576000828152600b6020908152604080832083805290915290206002015461205e576000828152600b6020908152604080832083805280835281842060016002918201819055835160a0810185528681528086018281528186018881523360608401818152608085018c8152868c52978a52888b2094518555925184860155905194830194909455516003820180546001600160a01b0319166001600160a01b039092169190911790559251600490930192909255600d829055808552600c84528285208786529093529281902083905551600080516020613ce883398151915292612051929186908690613b07565b60405180910390a161143b565b600d5461206c906001613bef565b6000838152600b60209081526040808320600d805485529083529281902060020193909355825160a081019093529054808352908201906120ae906001613bef565b815260200160008152602001336001600160a01b0316815260200182815250600b60008481526020019081526020016000206000600d5460016120f19190613bef565b81526020808201929092526040908101600020835181559183015160018084019190915590830151600283015560608301516003830180546001600160a01b0319166001600160a01b03909216919091179055608090920151600490910155600d5461215c91613bef565b336000908152600c60209081526040808320868452909152902055600d54600019141561218d576001600d556121a3565b600d805490600061219d83613c5d565b91905055505b600080516020613ce883398151915233600d5484846040516120519493929190613b07565b816001141561242a576000828152600b602090815260408083208380529091529020600201546122c0576000828152600b6020908152604080832083805280835281842060016002918201819055835160a0810185528681528086018281528186018881523360608401818152608085018c8152868c52978a52888b2094518555925184860155905194830194909455516003820180546001600160a01b0319166001600160a01b039092169190911790559251600490930192909255600e829055808552600c84528285208786529093529281902083905551600080516020613ce883398151915292612051929186908690613b07565b600e546122ce906001613bef565b6000838152600b60209081526040808320600e805485529083529281902060020193909355825160a08101909352905480835290820190612310906001613bef565b815260200160008152602001336001600160a01b0316815260200182815250600b60008481526020019081526020016000206000600e5460016123539190613bef565b81526020808201929092526040908101600020835181559183015160018084019190915590830151600283015560608301516003830180546001600160a01b0319166001600160a01b03909216919091179055608090920151600490910155600e546123be91613bef565b336000908152600c60209081526040808320868452909152902055600e5460001914156123ef576001600e55612405565b600e80549060006123ff83613c5d565b91905055505b600080516020613ce883398151915233600e5484846040516120519493929190613b07565b6000828152600b60209081526040808320838052909152902060020154612519576000828152600b6020908152604080832083805280835281842060016002918201819055835160a0810185528681528086018281528186018881523360608401818152608085018c8152868c52978a52888b2094518555925184860155905194830194909455516003820180546001600160a01b0319166001600160a01b039092169190911790559251600490930192909255600f829055808552600c84528285208786529093529281902083905551600080516020613ce883398151915292612051929186908690613b07565b600f54612527906001613bef565b6000838152600b60209081526040808320600f805485529083529281902060020193909355825160a08101909352905480835290820190612569906001613bef565b815260200160008152602001336001600160a01b0316815260200182815250600b60008481526020019081526020016000206000600f5460016125ac9190613bef565b81526020808201929092526040908101600020835181559183015160018084019190915590830151600283015560608301516003830180546001600160a01b0319166001600160a01b03909216919091179055608090920151600490910155600f5461261791613bef565b336000908152600c60209081526040808320868452909152902055600f546000191415612648576001600f5561265e565b600f805490600061265883613c5d565b91905055505b600080516020613ce883398151915233600f5484846040516126839493929190613b07565b60405180910390a1505060018055565b6000546001600160a01b031633146126bd5760405162461bcd60e51b815260040161083290613b2d565b601080546001600160a01b0319166001600160a01b0392909216919091179055565b6000546001600160a01b031633146127095760405162461bcd60e51b815260040161083290613b2d565b600280546001600160a01b0319166001600160a01b0392909216919091179055565b6002600154141561274e5760405162461bcd60e51b815260040161083290613b87565b600260015561275b61366e565b60008261276b575060045461279a565b826001141561278957600454612782906005613c27565b905061279a565b60045461279790600a613c27565b90505b8215806127a75750826001145b806127b25750826002145b6127ce5760405162461bcd60e51b815260040161083290613b62565b6127d88183613c27565b84146128195760405162461bcd60e51b815260206004820152601060248201526f09a9e9c8ab2409aaaa6a8409a82a886960831b6044820152606401610832565b6002546040516370a0823160e01b815233600482015285916001600160a01b0316906370a082319060240160206040518083038186803b15801561285c57600080fd5b505afa158015612870573d6000803e3d6000fd5b505050506040513d601f19601f820116820180604052508101906128949190613a6b565b10156128da5760405162461bcd60e51b8152602060048201526015602482015274494e53554646494349454e542042414c4c414e434560581b6044820152606401610832565b600254604051636eb1769f60e11b815233600482015230602482015285916001600160a01b03169063dd62ed3e9060440160206040518083038186803b15801561292357600080fd5b505afa158015612937573d6000803e3d6000fd5b505050506040513d601f19601f8201168201806040525081019061295b9190613a6b565b10156129a15760405162461bcd60e51b8152602060048201526015602482015274504c4541534520434845434b20414c4f57414e434560581b6044820152606401610832565b600354604051627eeac760e11b81523060048201526024810185905283916001600160a01b03169062fdd58e9060440160206040518083038186803b1580156129e957600080fd5b505afa1580156129fd573d6000803e3d6000fd5b505050506040513d601f19601f82011682018060405250810190612a219190613a6b565b1015612a5e5760405162461bcd60e51b815260206004820152600c60248201526b4f5554204f462053544f434b60a01b6044820152606401610832565b81612a6761376e565b84612ace57506000848152600b60209081526040808320838052825291829020825160a0810184528154815260018201549281019290925260028101549282019290925260038201546001600160a01b031660608201526004909101546080820152612b97565b8460011415612b3957506000848152600b60209081526040808320838052825291829020825160a0810184528154815260018201549281019290925260028101549282019290925260038201546001600160a01b031660608201526004909101546080820152612b97565b506000848152600b60209081526040808320838052825291829020825160a0810184528154815260018201549281019290925260028101549282019290925260038201546001600160a01b0316606082015260049091015460808201525b6000858152600b6020908152604080832084820151845290915290205b8215613356578060040154831115612ece576064600754826004015486612bdb9190613c27565b612be59190613c27565b612bef9190613c07565b60086000828254612c009190613bef565b90915550506007546004820154600091606491612c1d9088613c27565b612c279190613c27565b612c319190613c07565b6004830154612c409087613c27565b612c4a9190613c46565b9050816004015484612c5c9190613c46565b600483018054600090915590945087612ca257600d5483600101541415612c9d576000888152600b60209081526040808320600d8054855292529091205490555b612d0b565b8760011415612cdd57600e5483600101541415612c9d576000888152600b60209081526040808320600e805485529252909120549055612d0b565b600f5483600101541415612d0b576000888152600b60209081526040808320600f8054855292529091205490555b6000888152600b602090815260408083206001870180548552908352818420805460029182015481875284872090920182905591548552828520548186528386205560038801546001600160a01b03168552600a909352908320805491938692612d76908490613bef565b909155505060008a8152600b602090815260408083206002890154845290915290208a612dde5760038601546001870154604051908152339186916001600160a01b0390911690600080516020613d08833981519152906020015b60405180910390a4612e5b565b8a60011415612e1f5760038601546001870154604051908152339186916001600160a01b0390911690600080516020613cc883398151915290602001612dd1565b60038601546001870154604051908152339186916001600160a01b0390911690600080516020613d288339815191529060200160405180910390a45b6003808701546001600160a01b03166000908152600c602090815260408083208f84528252808320839055600b825280832060019a8b0154845290915281208181559788018190556002880181905590870180546001600160a01b031916905560049096019590955550612bb492505050565b806004015483101561306e57600754606490612eea8587613c27565b612ef49190613c27565b612efe9190613c07565b60086000828254612f0f9190613bef565b9091555050600754600090606490612f278688613c27565b612f319190613c27565b612f3b9190613c07565b612f458587613c27565b612f4f9190613c46565b9050600084905084836004016000828254612f6a9190613c46565b909155505060038301546001600160a01b03166000908152600a60205260408120805491965083918790612f9f908490613bef565b909155505087612fea5760038301546001840154604051908152339183916001600160a01b0390911690600080516020613d08833981519152906020015b60405180910390a4613067565b876001141561302b5760038301546001840154604051908152339183916001600160a01b0390911690600080516020613cc883398151915290602001612fdd565b60038301546001840154604051908152339183916001600160a01b0390911690600080516020613d288339815191529060200160405180910390a45b5050612bb4565b806004015483141561335157606460075482600401548661308f9190613c27565b6130999190613c27565b6130a39190613c07565b600860008282546130b49190613bef565b909155505060075460048201546000916064916130d19088613c27565b6130db9190613c27565b6130e59190613c07565b60048301546130f49087613c27565b6130fe9190613c46565b60048301805460009182905560038501546001600160a01b03168252600a602052604082208054929750929350918391879061313b908490613bef565b90915550508761317857600d5483600101541415613173576000888152600b60209081526040808320600d8054855292529091205490555b6131e1565b87600114156131b357600e5483600101541415613173576000888152600b60209081526040808320600e8054855292529091205490556131e1565b600f54836001015414156131e1576000888152600b60209081526040808320600f8054855292529091205490555b6000888152600b6020908152604080832060018701805485529252808320805460029182015481865283862090920182905592548452818420548185529190932055908961326a5760038501546001860154604051908152339185916001600160a01b0390911690600080516020613d08833981519152906020015b60405180910390a46132e7565b89600114156132ab5760038501546001860154604051908152339185916001600160a01b0390911690600080516020613cc88339815191529060200161325d565b60038501546001860154604051908152339185916001600160a01b0390911690600080516020613d288339815191529060200160405180910390a45b5050506003808301546001600160a01b03166000908152600c602090815260408083208b84528252808320839055600b82528083206001808801548552925282208281559081018290556002810182905591820180546001600160a01b0319169055600490910155505b612bb4565b821561337257634e487b7160e01b600052600160045260246000fd5b6002546040516323b872dd60e01b8152336004820152306024820152604481018990526001600160a01b03909116906323b872dd90606401602060405180830381600087803b1580156133c457600080fd5b505af11580156133d8573d6000803e3d6000fd5b505050506040513d601f19601f820116820180604052508101906133fc9190613a0f565b50600354604051637921219560e11b81526001600160a01b039091169063f242432a9061343390309033908b908b90600401613acf565b600060405180830381600087803b15801561344d57600080fd5b505af1158015613461573d6000803e3d6000fd5b505060018055505050505050505050565b6000546001600160a01b0316331461349c5760405162461bcd60e51b815260040161083290613b2d565b6001600160a01b0381166135015760405162461bcd60e51b815260206004820152602660248201527f4f776e61626c653a206e6577206f776e657220697320746865207a65726f206160448201526564647265737360d01b6064820152608401610832565b61350a8161371e565b50565b61351561376e565b61351d61376e565b8261358b57506000828152600b602090815260408083208380528252808320600290810154845292819020815160a08101835281548152600182015493810193909352928301549082015260038201546001600160a01b031660608201526004909101546080820152610802565b82600114156135fd57506000828152600b602090815260408083208380528252808320600290810154845292819020815160a08101835281548152600182015493810193909352928301549082015260038201546001600160a01b031660608201526004909101546080820152610802565b82600214156108025750506000908152600b602090815260408083208380528252808320600290810154845292819020815160a08101835281548152600182015493810193909352928301549082015260038201546001600160a01b03166060820152600490910154608082015290565b6006544211156116ee5760006018603c806006544261368d9190613c46565b6136979190613c07565b6136a19190613c07565b6136ab9190613c07565b9050801561350a5760045460005b82811015613717576103e86005546004546136d49190613c27565b6136de9190613c07565b6136e89083613bef565b915062015180600660008282546136ff9190613bef565b9091555081905061370f81613c5d565b9150506136b9565b5060045550565b600080546001600160a01b038381166001600160a01b0319831681178455604051919092169283917f8be0079c531659141344cd1fd0a4f28419497f9722a3daafe3b4186f6b6457e09190a35050565b6040518060a0016040528060008152602001600081526020016000815260200160006001600160a01b03168152602001600081525090565b600082601f8301126137b6578081fd5b8135602067ffffffffffffffff8211156137d2576137d2613c8e565b8160051b6137e1828201613bbe565b8381528281019086840183880185018910156137fb578687fd5b8693505b8584101561381d5780358352600193909301929184019184016137ff565b50979650505050505050565b600082601f830112613839578081fd5b813567ffffffffffffffff81111561385357613853613c8e565b613866601f8201601f1916602001613bbe565b81815284602083860101111561387a578283fd5b816020850160208301379081016020019190915292915050565b6000602082840312156138a5578081fd5b81356138b081613ca4565b9392505050565b600080600080600060a086880312156138ce578081fd5b85356138d981613ca4565b945060208601356138e981613ca4565b9350604086013567ffffffffffffffff80821115613905578283fd5b61391189838a016137a6565b94506060880135915080821115613926578283fd5b61393289838a016137a6565b93506080880135915080821115613947578283fd5b5061395488828901613829565b9150509295509295909350565b600080600080600060a08688031215613978578081fd5b853561398381613ca4565b9450602086013561399381613ca4565b93506040860135925060608601359150608086013567ffffffffffffffff8111156139bc578182fd5b61395488828901613829565b600080604083850312156139da578182fd5b82356139e581613ca4565b946020939093013593505050565b600060208284031215613a04578081fd5b81356138b081613cb9565b600060208284031215613a20578081fd5b81516138b081613cb9565b600060208284031215613a3c578081fd5b81356001600160e01b0319811681146138b0578182fd5b600060208284031215613a64578081fd5b5035919050565b600060208284031215613a7c578081fd5b5051919050565b60008060408385031215613a95578182fd5b50508035926020909101359150565b600080600060608486031215613ab8578081fd5b505081359360208301359350604090920135919050565b6001600160a01b0394851681529290931660208301526040820152606081019190915260a06080820181905260009082015260c00190565b6001600160a01b0394909416845260208401929092526040830152606082015260800190565b6020808252818101527f4f776e61626c653a2063616c6c6572206973206e6f7420746865206f776e6572604082015260600190565b6020808252600b908201526a1393d50810531313d5d15160aa1b604082015260600190565b6020808252601f908201527f5265656e7472616e637947756172643a207265656e7472616e742063616c6c00604082015260600190565b604051601f8201601f1916810167ffffffffffffffff81118282101715613be757613be7613c8e565b604052919050565b60008219821115613c0257613c02613c78565b500190565b600082613c2257634e487b7160e01b81526012600452602481fd5b500490565b6000816000190483118215151615613c4157613c41613c78565b500290565b600082821015613c5857613c58613c78565b500390565b6000600019821415613c7157613c71613c78565b5060010190565b634e487b7160e01b600052601160045260246000fd5b634e487b7160e01b600052604160045260246000fd5b6001600160a01b038116811461350a57600080fd5b801515811461350a57600080fdfee80b2261a79ae65d54a43bd5277e01a1e7a1a0e9e4fa2d95f86c2846430ca3b46ab0c0d6f398b4ef2ef303a1d9e3270349ccda6566f59107a0f2c3af79ef07341b3307b2eea1867e77b93070e1f95dbd92b502931bc506037f0595c519c818ac9e2bf5665863ce8e33dd4591a887d20a1689d46ea1022b0d293906e238e59aeea2646970667358221220b89ce00b8eb9c2df091cbd8e41ee26fe7d8977f9d1a371bed74e941958d6bc4a64736f6c63430008040033",
    "linkReferences": {},
    "deployedLinkReferences": {}
}