{
  "_format": "hh-sol-artifact-1",
  "contractName": "GainerMarketplace",
  "sourceName": "contracts/GainerMarketplace.sol",
  "abi": [
    {
      "inputs": [
        {
          "internalType": "contract IERC20",
          "name": "erc20token",
          "type": "address"
        },
        {
          "internalType": "uint256",
          "name": "gainerNFTprice",
          "type": "uint256"
        },
        {
          "internalType": "uint256",
          "name": "rebasePercentage",
          "type": "uint256"
        },
        {
          "internalType": "uint256",
          "name": "transactionFee",
          "type": "uint256"
        }
      ],
      "stateMutability": "nonpayable",
      "type": "constructor"
    },
    {
      "anonymous": false,
      "inputs": [
        {
          "indexed": false,
          "internalType": "address",
          "name": "sellerAddr",
          "type": "address"
        },
        {
          "indexed": false,
          "internalType": "uint256",
          "name": "listingId",
          "type": "uint256"
        },
        {
          "indexed": false,
          "internalType": "uint256",
          "name": "tokenId",
          "type": "uint256"
        },
        {
          "indexed": false,
          "internalType": "uint256",
          "name": "amount",
          "type": "uint256"
        }
      ],
      "name": "AddListing",
      "type": "event"
    },
    {
      "anonymous": false,
      "inputs": [
        {
          "indexed": true,
          "internalType": "address",
          "name": "sellerAddr",
          "type": "address"
        },
        {
          "indexed": false,
          "internalType": "uint256",
          "name": "listingId",
          "type": "uint256"
        },
        {
          "indexed": true,
          "internalType": "uint256",
          "name": "amount",
          "type": "uint256"
        },
        {
          "indexed": true,
          "internalType": "address",
          "name": "buyerAddr",
          "type": "address"
        }
      ],
      "name": "DoneTrxGainerFive",
      "type": "event"
    },
    {
      "anonymous": false,
      "inputs": [
        {
          "indexed": true,
          "internalType": "address",
          "name": "sellerAddr",
          "type": "address"
        },
        {
          "indexed": false,
          "internalType": "uint256",
          "name": "listingId",
          "type": "uint256"
        },
        {
          "indexed": true,
          "internalType": "uint256",
          "name": "amount",
          "type": "uint256"
        },
        {
          "indexed": true,
          "internalType": "address",
          "name": "buyerAddr",
          "type": "address"
        }
      ],
      "name": "DoneTrxGainerOne",
      "type": "event"
    },
    {
      "anonymous": false,
      "inputs": [
        {
          "indexed": true,
          "internalType": "address",
          "name": "sellerAddr",
          "type": "address"
        },
        {
          "indexed": false,
          "internalType": "uint256",
          "name": "listingId",
          "type": "uint256"
        },
        {
          "indexed": true,
          "internalType": "uint256",
          "name": "amount",
          "type": "uint256"
        },
        {
          "indexed": true,
          "internalType": "address",
          "name": "buyerAddr",
          "type": "address"
        }
      ],
      "name": "DoneTrxGainerTen",
      "type": "event"
    },
    {
      "anonymous": false,
      "inputs": [
        {
          "indexed": false,
          "internalType": "address",
          "name": "sellerAddr",
          "type": "address"
        },
        {
          "indexed": false,
          "internalType": "uint256",
          "name": "listingId",
          "type": "uint256"
        },
        {
          "indexed": false,
          "internalType": "uint256",
          "name": "tokenId",
          "type": "uint256"
        },
        {
          "indexed": false,
          "internalType": "uint256",
          "name": "amount",
          "type": "uint256"
        },
        {
          "indexed": false,
          "internalType": "uint256",
          "name": "prevListingId",
          "type": "uint256"
        }
      ],
      "name": "ModifyListing",
      "type": "event"
    },
    {
      "anonymous": false,
      "inputs": [
        {
          "indexed": true,
          "internalType": "address",
          "name": "previousOwner",
          "type": "address"
        },
        {
          "indexed": true,
          "internalType": "address",
          "name": "newOwner",
          "type": "address"
        }
      ],
      "name": "OwnershipTransferred",
      "type": "event"
    },
    {
      "inputs": [
        {
          "internalType": "uint256",
          "name": "",
          "type": "uint256"
        },
        {
          "internalType": "uint256",
          "name": "",
          "type": "uint256"
        }
      ],
      "name": "Listing",
      "outputs": [
        {
          "internalType": "uint256",
          "name": "prev",
          "type": "uint256"
        },
        {
          "internalType": "uint256",
          "name": "selfIndex",
          "type": "uint256"
        },
        {
          "internalType": "uint256",
          "name": "next",
          "type": "uint256"
        },
        {
          "internalType": "address",
          "name": "sellerAddr",
          "type": "address"
        },
        {
          "internalType": "uint256",
          "name": "amount",
          "type": "uint256"
        }
      ],
      "stateMutability": "view",
      "type": "function"
    },
    {
      "inputs": [
        {
          "internalType": "address",
          "name": "",
          "type": "address"
        },
        {
          "internalType": "uint256",
          "name": "",
          "type": "uint256"
        }
      ],
      "name": "UserListing",
      "outputs": [
        {
          "internalType": "uint256",
          "name": "",
          "type": "uint256"
        }
      ],
      "stateMutability": "view",
      "type": "function"
    },
    {
      "inputs": [],
      "name": "_erc20token",
      "outputs": [
        {
          "internalType": "contract IERC20",
          "name": "",
          "type": "address"
        }
      ],
      "stateMutability": "view",
      "type": "function"
    },
    {
      "inputs": [],
      "name": "_feeCollector",
      "outputs": [
        {
          "internalType": "uint256",
          "name": "",
          "type": "uint256"
        }
      ],
      "stateMutability": "view",
      "type": "function"
    },
    {
      "inputs": [],
      "name": "_gainerFiveGiveAwayAmount",
      "outputs": [
        {
          "internalType": "uint256",
          "name": "",
          "type": "uint256"
        }
      ],
      "stateMutability": "view",
      "type": "function"
    },
    {
      "inputs": [],
      "name": "_gainerNFT",
      "outputs": [
        {
          "internalType": "contract IERC1155",
          "name": "",
          "type": "address"
        }
      ],
      "stateMutability": "view",
      "type": "function"
    },
    {
      "inputs": [],
      "name": "_gainerOneGiveAwayAmount",
      "outputs": [
        {
          "internalType": "uint256",
          "name": "",
          "type": "uint256"
        }
      ],
      "stateMutability": "view",
      "type": "function"
    },
    {
      "inputs": [],
      "name": "_gainerTenGiveAwayAmount",
      "outputs": [
        {
          "internalType": "uint256",
          "name": "",
          "type": "uint256"
        }
      ],
      "stateMutability": "view",
      "type": "function"
    },
    {
      "inputs": [],
      "name": "_giveAwayWalletAddr",
      "outputs": [
        {
          "internalType": "address",
          "name": "",
          "type": "address"
        }
      ],
      "stateMutability": "view",
      "type": "function"
    },
    {
      "inputs": [],
      "name": "_isClaimOpen",
      "outputs": [
        {
          "internalType": "bool",
          "name": "",
          "type": "bool"
        }
      ],
      "stateMutability": "view",
      "type": "function"
    },
    {
      "inputs": [],
      "name": "_otherERC20Token",
      "outputs": [
        {
          "internalType": "contract IERC20",
          "name": "",
          "type": "address"
        }
      ],
      "stateMutability": "view",
      "type": "function"
    },
    {
      "inputs": [],
      "name": "_protocolWalletAddr",
      "outputs": [
        {
          "internalType": "address",
          "name": "",
          "type": "address"
        }
      ],
      "stateMutability": "view",
      "type": "function"
    },
    {
      "inputs": [],
      "name": "_rebasePercentage",
      "outputs": [
        {
          "internalType": "uint256",
          "name": "",
          "type": "uint256"
        }
      ],
      "stateMutability": "view",
      "type": "function"
    },
    {
      "inputs": [],
      "name": "_transactionFee",
      "outputs": [
        {
          "internalType": "uint256",
          "name": "",
          "type": "uint256"
        }
      ],
      "stateMutability": "view",
      "type": "function"
    },
    {
      "inputs": [
        {
          "internalType": "address",
          "name": "",
          "type": "address"
        }
      ],
      "name": "_userClaimGiveAway",
      "outputs": [
        {
          "internalType": "bool",
          "name": "",
          "type": "bool"
        }
      ],
      "stateMutability": "view",
      "type": "function"
    },
    {
      "inputs": [
        {
          "internalType": "address",
          "name": "",
          "type": "address"
        }
      ],
      "name": "_userErc20TokenBalanceInGainerProtocol",
      "outputs": [
        {
          "internalType": "uint256",
          "name": "",
          "type": "uint256"
        }
      ],
      "stateMutability": "view",
      "type": "function"
    },
    {
      "inputs": [
        {
          "internalType": "uint256",
          "name": "tokenId",
          "type": "uint256"
        },
        {
          "internalType": "uint256",
          "name": "amount",
          "type": "uint256"
        }
      ],
      "name": "addListingNFT",
      "outputs": [],
      "stateMutability": "nonpayable",
      "type": "function"
    },
    {
      "inputs": [
        {
          "internalType": "uint256",
          "name": "moneyAmount",
          "type": "uint256"
        },
        {
          "internalType": "uint256",
          "name": "tokenId",
          "type": "uint256"
        },
        {
          "internalType": "uint256",
          "name": "tokenAmount",
          "type": "uint256"
        }
      ],
      "name": "buyNFT",
      "outputs": [],
      "stateMutability": "nonpayable",
      "type": "function"
    },
    {
      "inputs": [
        {
          "internalType": "uint256",
          "name": "moneyAmount",
          "type": "uint256"
        },
        {
          "internalType": "uint256",
          "name": "tokenId",
          "type": "uint256"
        },
        {
          "internalType": "uint256",
          "name": "tokenAmount",
          "type": "uint256"
        }
      ],
      "name": "buyNFTFromGainerProtocol",
      "outputs": [],
      "stateMutability": "nonpayable",
      "type": "function"
    },
    {
      "inputs": [
        {
          "internalType": "uint256",
          "name": "tokenId",
          "type": "uint256"
        }
      ],
      "name": "cancelListing",
      "outputs": [],
      "stateMutability": "nonpayable",
      "type": "function"
    },
    {
      "inputs": [
        {
          "internalType": "uint256",
          "name": "tokenId",
          "type": "uint256"
        }
      ],
      "name": "checkLastListing",
      "outputs": [
        {
          "components": [
            {
              "internalType": "uint256",
              "name": "prev",
              "type": "uint256"
            },
            {
              "internalType": "uint256",
              "name": "selfIndex",
              "type": "uint256"
            },
            {
              "internalType": "uint256",
              "name": "next",
              "type": "uint256"
            },
            {
              "internalType": "address",
              "name": "sellerAddr",
              "type": "address"
            },
            {
              "internalType": "uint256",
              "name": "amount",
              "type": "uint256"
            }
          ],
          "internalType": "struct GainerMarketplace.NFTListing",
          "name": "",
          "type": "tuple"
        }
      ],
      "stateMutability": "view",
      "type": "function"
    },
    {
      "inputs": [
        {
          "internalType": "uint256",
          "name": "tokenId",
          "type": "uint256"
        }
      ],
      "name": "checkTopListing",
      "outputs": [
        {
          "components": [
            {
              "internalType": "uint256",
              "name": "prev",
              "type": "uint256"
            },
            {
              "internalType": "uint256",
              "name": "selfIndex",
              "type": "uint256"
            },
            {
              "internalType": "uint256",
              "name": "next",
              "type": "uint256"
            },
            {
              "internalType": "address",
              "name": "sellerAddr",
              "type": "address"
            },
            {
              "internalType": "uint256",
              "name": "amount",
              "type": "uint256"
            }
          ],
          "internalType": "struct GainerMarketplace.NFTListing",
          "name": "",
          "type": "tuple"
        }
      ],
      "stateMutability": "view",
      "type": "function"
    },
    {
      "inputs": [],
      "name": "claimGiveAway",
      "outputs": [],
      "stateMutability": "nonpayable",
      "type": "function"
    },
    {
      "inputs": [],
      "name": "headGainerFive",
      "outputs": [
        {
          "internalType": "uint256",
          "name": "",
          "type": "uint256"
        }
      ],
      "stateMutability": "view",
      "type": "function"
    },
    {
      "inputs": [],
      "name": "headGainerOne",
      "outputs": [
        {
          "internalType": "uint256",
          "name": "",
          "type": "uint256"
        }
      ],
      "stateMutability": "view",
      "type": "function"
    },
    {
      "inputs": [],
      "name": "headGainerTen",
      "outputs": [
        {
          "internalType": "uint256",
          "name": "",
          "type": "uint256"
        }
      ],
      "stateMutability": "view",
      "type": "function"
    },
    {
      "inputs": [
        {
          "internalType": "uint256",
          "name": "tokenId",
          "type": "uint256"
        },
        {
          "internalType": "uint256",
          "name": "head",
          "type": "uint256"
        }
      ],
      "name": "isListingEmpty",
      "outputs": [
        {
          "internalType": "bool",
          "name": "",
          "type": "bool"
        }
      ],
      "stateMutability": "view",
      "type": "function"
    },
    {
      "inputs": [
        {
          "internalType": "uint256",
          "name": "tokenId",
          "type": "uint256"
        }
      ],
      "name": "isUserListingEmpty",
      "outputs": [
        {
          "internalType": "bool",
          "name": "",
          "type": "bool"
        }
      ],
      "stateMutability": "view",
      "type": "function"
    },
    {
      "inputs": [
        {
          "internalType": "address",
          "name": "",
          "type": "address"
        },
        {
          "internalType": "address",
          "name": "",
          "type": "address"
        },
        {
          "internalType": "uint256[]",
          "name": "",
          "type": "uint256[]"
        },
        {
          "internalType": "uint256[]",
          "name": "",
          "type": "uint256[]"
        },
        {
          "internalType": "bytes",
          "name": "",
          "type": "bytes"
        }
      ],
      "name": "onERC1155BatchReceived",
      "outputs": [
        {
          "internalType": "bytes4",
          "name": "",
          "type": "bytes4"
        }
      ],
      "stateMutability": "nonpayable",
      "type": "function"
    },
    {
      "inputs": [
        {
          "internalType": "address",
          "name": "",
          "type": "address"
        },
        {
          "internalType": "address",
          "name": "",
          "type": "address"
        },
        {
          "internalType": "uint256",
          "name": "",
          "type": "uint256"
        },
        {
          "internalType": "uint256",
          "name": "",
          "type": "uint256"
        },
        {
          "internalType": "bytes",
          "name": "",
          "type": "bytes"
        }
      ],
      "name": "onERC1155Received",
      "outputs": [
        {
          "internalType": "bytes4",
          "name": "",
          "type": "bytes4"
        }
      ],
      "stateMutability": "nonpayable",
      "type": "function"
    },
    {
      "inputs": [],
      "name": "owner",
      "outputs": [
        {
          "internalType": "address",
          "name": "",
          "type": "address"
        }
      ],
      "stateMutability": "view",
      "type": "function"
    },
    {
      "inputs": [],
      "name": "renounceOwnership",
      "outputs": [],
      "stateMutability": "nonpayable",
      "type": "function"
    },
    {
      "inputs": [
        {
          "internalType": "contract IERC20",
          "name": "erc20token",
          "type": "address"
        }
      ],
      "name": "setERC20Token",
      "outputs": [],
      "stateMutability": "nonpayable",
      "type": "function"
    },
    {
      "inputs": [
        {
          "internalType": "contract IERC1155",
          "name": "gainerNFTaddr",
          "type": "address"
        }
      ],
      "name": "setGainerNFTAddr",
      "outputs": [],
      "stateMutability": "nonpayable",
      "type": "function"
    },
    {
      "inputs": [
        {
          "internalType": "uint256",
          "name": "price",
          "type": "uint256"
        }
      ],
      "name": "setGainerNFTPrice",
      "outputs": [],
      "stateMutability": "nonpayable",
      "type": "function"
    },
    {
      "inputs": [
        {
          "internalType": "address",
          "name": "giveAwayWalletAddr",
          "type": "address"
        }
      ],
      "name": "setGiveAwayWalletAddr",
      "outputs": [],
      "stateMutability": "nonpayable",
      "type": "function"
    },
    {
      "inputs": [
        {
          "internalType": "uint256",
          "name": "gainerOneGiveAwayAmount",
          "type": "uint256"
        },
        {
          "internalType": "uint256",
          "name": "gainerFiveGiveAwayAmount",
          "type": "uint256"
        },
        {
          "internalType": "uint256",
          "name": "gainerTenGiveAwayAmount",
          "type": "uint256"
        }
      ],
      "name": "setNFTGiveAwayAmount",
      "outputs": [],
      "stateMutability": "nonpayable",
      "type": "function"
    },
    {
      "inputs": [
        {
          "internalType": "contract IERC20",
          "name": "addr",
          "type": "address"
        }
      ],
      "name": "setOtherERC20Token",
      "outputs": [],
      "stateMutability": "nonpayable",
      "type": "function"
    },
    {
      "inputs": [
        {
          "internalType": "address",
          "name": "protocolWalletAddr",
          "type": "address"
        }
      ],
      "name": "setProtocolWalletAddr",
      "outputs": [],
      "stateMutability": "nonpayable",
      "type": "function"
    },
    {
      "inputs": [
        {
          "internalType": "uint256",
          "name": "percentage",
          "type": "uint256"
        }
      ],
      "name": "setRebasePercentage",
      "outputs": [],
      "stateMutability": "nonpayable",
      "type": "function"
    },
    {
      "inputs": [
        {
          "internalType": "bool",
          "name": "status",
          "type": "bool"
        }
      ],
      "name": "setStatusGiveaway",
      "outputs": [],
      "stateMutability": "nonpayable",
      "type": "function"
    },
    {
      "inputs": [
        {
          "internalType": "uint256",
          "name": "fee",
          "type": "uint256"
        }
      ],
      "name": "setTransactionFee",
      "outputs": [],
      "stateMutability": "nonpayable",
      "type": "function"
    },
    {
      "inputs": [
        {
          "internalType": "uint256",
          "name": "nextDay",
          "type": "uint256"
        }
      ],
      "name": "setupDay",
      "outputs": [],
      "stateMutability": "nonpayable",
      "type": "function"
    },
    {
      "inputs": [],
      "name": "showOtherERC20Token",
      "outputs": [
        {
          "internalType": "contract IERC20",
          "name": "",
          "type": "address"
        }
      ],
      "stateMutability": "view",
      "type": "function"
    },
    {
      "inputs": [],
      "name": "showPrice",
      "outputs": [
        {
          "internalType": "uint256",
          "name": "",
          "type": "uint256"
        }
      ],
      "stateMutability": "view",
      "type": "function"
    },
    {
      "inputs": [
        {
          "internalType": "bytes4",
          "name": "interfaceId",
          "type": "bytes4"
        }
      ],
      "name": "supportsInterface",
      "outputs": [
        {
          "internalType": "bool",
          "name": "",
          "type": "bool"
        }
      ],
      "stateMutability": "view",
      "type": "function"
    },
    {
      "inputs": [],
      "name": "tailGainerFive",
      "outputs": [
        {
          "internalType": "uint256",
          "name": "",
          "type": "uint256"
        }
      ],
      "stateMutability": "view",
      "type": "function"
    },
    {
      "inputs": [],
      "name": "tailGainerOne",
      "outputs": [
        {
          "internalType": "uint256",
          "name": "",
          "type": "uint256"
        }
      ],
      "stateMutability": "view",
      "type": "function"
    },
    {
      "inputs": [],
      "name": "tailGainerTen",
      "outputs": [
        {
          "internalType": "uint256",
          "name": "",
          "type": "uint256"
        }
      ],
      "stateMutability": "view",
      "type": "function"
    },
    {
      "inputs": [],
      "name": "transferOtherERC20Token",
      "outputs": [],
      "stateMutability": "nonpayable",
      "type": "function"
    },
    {
      "inputs": [
        {
          "internalType": "address",
          "name": "newOwner",
          "type": "address"
        }
      ],
      "name": "transferOwnership",
      "outputs": [],
      "stateMutability": "nonpayable",
      "type": "function"
    },
    {
      "inputs": [],
      "name": "withdrawFeeTransaction",
      "outputs": [],
      "stateMutability": "nonpayable",
      "type": "function"
    },
    {
      "inputs": [],
      "name": "withdrawUserERC20Token",
      "outputs": [],
      "stateMutability": "nonpayable",
      "type": "function"
    }
  ],
  "bytecode": "0x60806040526000600d556000600e556000600f553480156200002057600080fd5b5060405162003f3d38038062003f3d8339810160408190526200004391620000d5565b6200004e3362000085565b60018055600280546001600160a01b0319166001600160a01b03959095169490941790935560049190915560055560075562000120565b600080546001600160a01b038381166001600160a01b0319831681178455604051919092169283917f8be0079c531659141344cd1fd0a4f28419497f9722a3daafe3b4186f6b6457e09190a35050565b60008060008060808587031215620000eb578384fd5b84516001600160a01b038116811462000102578485fd5b60208601516040870151606090970151919890975090945092505050565b613e0d80620001306000396000f3fe608060405234801561001057600080fd5b50600436106103275760003560e01c80636f302bb9116101b85780639b40490511610104578063de562487116100a2578063f071188e1161007c578063f071188e14610594578063f23a6e611461078c578063f2fde38b146107ab578063f4ccbe07146107be57600080fd5b8063de5624871461075d578063e4b70b4214610770578063e655e15d1461078357600080fd5b8063bc197c81116100de578063bc197c8114610687578063cb124e1d146106bf578063d2d41d64146106d2578063d5d360171461075457600080fd5b80639b404905146106515780639dc58e8114610664578063a3cf8b281461059457600080fd5b806382a6e568116101715780638da5cb5b1161014b5780638da5cb5b146106125780638e0e0abb146106235780638e838ea41461062b57806396bb3d9c1461063e57600080fd5b806382a6e568146105ee57806382cbb41f1461060157806386514a751461060957600080fd5b80636f302bb91461059c5780637002372f146105a5578063715018a6146105ad5780637ba2597d146105b55780637c87b694146105c85780637e10f42e146105db57600080fd5b80632998fca3116102775780634b8e31a21161023057806354ef2fad1161020a57806354ef2fad1461057657806364f98b531461057f5780636956491b1461058c5780636b13b8871461059457600080fd5b80634b8e31a21461052f57806351a4a3311461054257806352aa0b4d1461056e57600080fd5b80632998fca3146104c95780632b17730e146104da578063305a67a8146104ed5780633191f5e714610500578063350013a7146105135780633ed4df021461052657600080fd5b806317b7c544116102e4578063209d407a116102be578063209d407a14610453578063226b5cea1461047e578063273cc9381461049157806327d5909d1461049a57600080fd5b806317b7c544146103de5780631d2b381e146103e75780631ef2da5b1461044057600080fd5b806301ffc9a71461032c5780630827b08914610354578063096a8ab7146103825780630b2c1f3e146103975780630b945263146103c257806315443afc146103cb575b600080fd5b61033f61033a366004613abb565b6107d1565b60405190151581526020015b60405180910390f35b610374610362366004613924565b600a6020526000908152604090205481565b60405190815260200161034b565b610395610390366004613ae3565b610808565b005b6016546103aa906001600160a01b031681565b6040516001600160a01b03909116815260200161034b565b610374600f5481565b6103956103d9366004613924565b610840565b61037460055481565b6103fa6103f5366004613ae3565b61088c565b60405161034b91908151815260208083015190820152604080830151908201526060808301516001600160a01b0316908201526080918201519181019190915260a00190565b61039561044e366004613ae3565b6109ed565b610374610461366004613a58565b600c60209081526000928352604080842090915290825290205481565b61039561048c366004613a83565b610a1c565b610374600d5481565b61033f6104a8366004613b13565b6000918252600b602090815260408084209284529190529020600201541590565b6016546001600160a01b03166103aa565b6103956104e8366004613ae3565b610a59565b6103956104fb366004613ae3565b610a88565b6010546103aa906001600160a01b031681565b610395610521366004613b34565b610e69565b61037460155481565b6002546103aa906001600160a01b031681565b61033f610550366004613ae3565b336000908152600c6020908152604080832093835292905220541590565b61039561135e565b61037460085481565b60125461033f9060ff1681565b610395611477565b610374600081565b61037460075481565b610395611578565b6103956116ee565b6103956105c3366004613b34565b611724565b6103956105d6366004613924565b61175c565b6003546103aa906001600160a01b031681565b6009546103aa906001600160a01b031681565b6103956117a8565b61037460135481565b6000546001600160a01b03166103aa565b610374611b95565b610395610639366004613924565b611c3a565b61039561064c366004613ae3565b611c86565b61039561065f366004613b13565b611cb5565b61033f610672366004613924565b60116020526000908152604090205460ff1681565b6106a6610695366004613947565b63bc197c8160e01b95945050505050565b6040516001600160e01b0319909116815260200161034b565b6103956106cd366004613924565b6126af565b6107236106e0366004613b13565b600b602090815260009283526040808420909152908252902080546001820154600283015460038401546004909401549293919290916001600160a01b03169085565b604080519586526020860194909452928401919091526001600160a01b03166060830152608082015260a00161034b565b61037460145481565b61039561076b366004613924565b6126fb565b61039561077e366004613b34565b612747565b610374600e5481565b6106a661079a3660046139f1565b63f23a6e6160e01b95945050505050565b6103956107b9366004613924565b613502565b6103fa6107cc366004613ae3565b61359d565b60006001600160e01b03198216630271189760e51b148061080257506301ffc9a760e01b6001600160e01b03198316145b92915050565b6000546001600160a01b0316331461083b5760405162461bcd60e51b815260040161083290613bbd565b60405180910390fd5b600755565b6000546001600160a01b0316331461086a5760405162461bcd60e51b815260040161083290613bbd565b600980546001600160a01b0319166001600160a01b0392909216919091179055565b6108946137fe565b61089c6137fe565b8261090a57506000828152600b60209081526040808320600d5484528252808320600190810154845292819020815160a08101835281548152938101549284019290925260028201549083015260038101546001600160a01b03166060830152600401546080820152610802565b826001141561097c57506000828152600b60209081526040808320600e5484528252808320600190810154845292819020815160a08101835281548152938101549284019290925260028201549083015260038101546001600160a01b03166060830152600401546080820152610802565b82600214156108025750506000908152600b60209081526040808320600f5484528252808320600190810154845292819020815160a08101835281548152938101549284019290925260028201549083015260038101546001600160a01b0316606083015260040154608082015290565b6000546001600160a01b03163314610a175760405162461bcd60e51b815260040161083290613bbd565b600455565b6000546001600160a01b03163314610a465760405162461bcd60e51b815260040161083290613bbd565b6012805460ff1916911515919091179055565b6000546001600160a01b03163314610a835760405162461bcd60e51b815260040161083290613bbd565b600655565b60026001541415610aab5760405162461bcd60e51b815260040161083290613c17565b6002600155801580610abd5750806001145b80610ac85750806002145b610ae45760405162461bcd60e51b815260040161083290613bf2565b336000908152600c60209081526040808320848452909152902054610b4b5760405162461bcd60e51b815260206004820152601760248201527f594f5520444f4e5420484156452041204c495354494e470000000000000000006044820152606401610832565b336000908152600c60209081526040808320848452825280832054600b835281842081855290925290912082610bae57600d5481600101541415610ba9576000838152600b60209081526040808320600d8054855292529091205490555b610c17565b8260011415610be957600e5481600101541415610ba9576000838152600b60209081526040808320600e805485529252909120549055610c17565b600f5481600101541415610c17576000838152600b60209081526040808320600f8054855292529091205490555b6000600b60008581526020019081526020016000206000836001015481526020019081526020016000206000015490506000600b6000868152602001908152602001600020600084600101548152602001908152602001600020600201549050600b600086815260200190815260200160002060008460010154815260200190815260200160002060020154600b6000878152602001908152602001600020600084815260200190815260200160002060020181905550600b600086815260200190815260200160002060008460010154815260200190815260200160002060000154600b6000878152602001908152602001600020600083815260200190815260200160002060000181905550600083600401549050600c60008560030160009054906101000a90046001600160a01b03166001600160a01b03166001600160a01b03168152602001908152602001600020600087815260200190815260200160002060009055600b6000878152602001908152602001600020600085600101548152602001908152602001600020600080820160009055600182016000905560028201600090556003820160006101000a8154906001600160a01b03021916905560048201600090555050600360009054906101000a90046001600160a01b03166001600160a01b031663f242432a303389856040518563ffffffff1660e01b8152600401610e2b9493929190613b5f565b600060405180830381600087803b158015610e4557600080fd5b505af1158015610e59573d6000803e3d6000fd5b5050600180555050505050505050565b60026001541415610e8c5760405162461bcd60e51b815260040161083290613c17565b6002600155610e996136fe565b600082610ea95750600454610ed8565b8260011415610ec757600454610ec0906005613cb7565b9050610ed8565b600454610ed590600a613cb7565b90505b821580610ee55750826001145b80610ef05750826002145b610f0c5760405162461bcd60e51b815260040161083290613bf2565b610f168183613cb7565b8414610f575760405162461bcd60e51b815260206004820152601060248201526f09a9e9c8ab2409aaaa6a8409a82a886960831b6044820152606401610832565b6002546040516370a0823160e01b815233600482015285916001600160a01b0316906370a082319060240160206040518083038186803b158015610f9a57600080fd5b505afa158015610fae573d6000803e3d6000fd5b505050506040513d601f19601f82011682018060405250810190610fd29190613afb565b10156110185760405162461bcd60e51b8152602060048201526015602482015274494e53554646494349454e542042414c4c414e434560581b6044820152606401610832565b600254604051636eb1769f60e11b815233600482015230602482015285916001600160a01b03169063dd62ed3e9060440160206040518083038186803b15801561106157600080fd5b505afa158015611075573d6000803e3d6000fd5b505050506040513d601f19601f820116820180604052508101906110999190613afb565b10156110df5760405162461bcd60e51b8152602060048201526015602482015274504c4541534520434845434b20414c4f57414e434560581b6044820152606401610832565b600354600954604051627eeac760e11b81526001600160a01b039182166004820152602481018690528492919091169062fdd58e9060440160206040518083038186803b15801561112f57600080fd5b505afa158015611143573d6000803e3d6000fd5b505050506040513d601f19601f820116820180604052508101906111679190613afb565b10156111a45760405162461bcd60e51b815260206004820152600c60248201526b4f5554204f462053544f434b60a01b6044820152606401610832565b6002546009546040516323b872dd60e01b81523360048201526001600160a01b039182166024820152604481018790529116906323b872dd90606401602060405180830381600087803b1580156111fa57600080fd5b505af115801561120e573d6000803e3d6000fd5b505050506040513d601f19601f820116820180604052508101906112329190613a9f565b50600354600954604051637921219560e11b81526001600160a01b039283169263f242432a9261126d92911690339088908890600401613b5f565b600060405180830381600087803b15801561128757600080fd5b505af115801561129b573d6000803e3d6000fd5b5050505082600014156112e35760095460405160008152339184916001600160a01b0390911690600080516020613d98833981519152906020015b60405180910390a4611354565b826001141561131e5760095460405160008152339184916001600160a01b0390911690600080516020613d58833981519152906020016112d6565b60095460405160008152339184916001600160a01b0390911690600080516020613db88339815191529060200160405180910390a45b5050600180555050565b600260015414156113815760405162461bcd60e51b815260040161083290613c17565b6002600155336000908152600a6020526040902054806113d85760405162461bcd60e51b81526020600482015260126024820152714e6f7420656e6f7567682062616c616e636560701b6044820152606401610832565b336000818152600a602052604080822091909155600254905163a9059cbb60e01b81526004810192909252602482018390526001600160a01b03169063a9059cbb90604401602060405180830381600087803b15801561143757600080fd5b505af115801561144b573d6000803e3d6000fd5b505050506040513d601f19601f8201168201806040525081019061146f9190613a9f565b505060018055565b6000546001600160a01b031633146114a15760405162461bcd60e51b815260040161083290613bbd565b6000600854116114e85760405162461bcd60e51b81526020600482015260126024820152714e4f5420656e6f7567682042414c414e434560701b6044820152606401610832565b60025460085460405163a9059cbb60e01b815233600482015260248101919091526001600160a01b039091169063a9059cbb90604401602060405180830381600087803b15801561153857600080fd5b505af115801561154c573d6000803e3d6000fd5b505050506040513d601f19601f820116820180604052508101906115709190613a9f565b506000600855565b6000546001600160a01b031633146115a25760405162461bcd60e51b815260040161083290613bbd565b6016546040516370a0823160e01b81523060048201526000916001600160a01b0316906370a082319060240160206040518083038186803b1580156115e657600080fd5b505afa1580156115fa573d6000803e3d6000fd5b505050506040513d601f19601f8201168201806040525081019061161e9190613afb565b9050600081116116665760405162461bcd60e51b8152602060048201526013602482015272125394d551919250d251539508105353d55395606a1b6044820152606401610832565b60165460405163a9059cbb60e01b8152336004820152602481018390526001600160a01b039091169063a9059cbb90604401602060405180830381600087803b1580156116b257600080fd5b505af11580156116c6573d6000803e3d6000fd5b505050506040513d601f19601f820116820180604052508101906116ea9190613a9f565b5050565b6000546001600160a01b031633146117185760405162461bcd60e51b815260040161083290613bbd565b61172260006137ae565b565b6000546001600160a01b0316331461174e5760405162461bcd60e51b815260040161083290613bbd565b601392909255601455601555565b6000546001600160a01b031633146117865760405162461bcd60e51b815260040161083290613bbd565b600380546001600160a01b0319166001600160a01b0392909216919091179055565b600260015414156117cb5760405162461bcd60e51b815260040161083290613c17565b600260015560125460ff166118165760405162461bcd60e51b81526020600482015260116024820152701393d50810d31052535050931148165155607a1b6044820152606401610832565b600354601054604051627eeac760e11b81526001600160a01b03918216600482015260006024820181905292919091169062fdd58e9060440160206040518083038186803b15801561186757600080fd5b505afa15801561187b573d6000803e3d6000fd5b505050506040513d601f19601f8201168201806040525081019061189f9190613afb565b600354601054604051627eeac760e11b81526001600160a01b0391821660048201526001602482015292935060009291169062fdd58e9060440160206040518083038186803b1580156118f157600080fd5b505afa158015611905573d6000803e3d6000fd5b505050506040513d601f19601f820116820180604052508101906119299190613afb565b600354601054604051627eeac760e11b81526001600160a01b0391821660048201526002602482015292935060009291169062fdd58e9060440160206040518083038186803b15801561197b57600080fd5b505afa15801561198f573d6000803e3d6000fd5b505050506040513d601f19601f820116820180604052508101906119b39190613afb565b905060008311806119c45750600082115b806119cf5750600081115b611a1b5760405162461bcd60e51b815260206004820152601860248201527f414c4c204e46547320414c524541445920434c41494d454400000000000000006044820152606401610832565b3360009081526011602052604090205460ff16611b4e57336000908152601160205260409020805460ff191660011790558215611ac557600354601054601354604051637921219560e11b81526001600160a01b039384169363f242432a93611a8e939116913391600091600401613b5f565b600060405180830381600087803b158015611aa857600080fd5b505af1158015611abc573d6000803e3d6000fd5b50505050611b8c565b8115611b0757600354601054601454604051637921219560e11b81526001600160a01b039384169363f242432a93611a8e939116913391600191600401613b5f565b8015611b4957600354601054601554604051637921219560e11b81526001600160a01b039384169363f242432a93611a8e939116913391600291600401613b5f565b611b8c565b60405162461bcd60e51b81526020600482015260136024820152721653d548105314915051164810d31052535151606a1b6044820152606401610832565b50506001805550565b6000600654421115611c335760006018603c8060065442611bb69190613cd6565b611bc09190613c97565b611bca9190613c97565b611bd49190613c97565b905080611be357505060045490565b60045460005b82811015611c2c576103e8600554600454611c049190613cb7565b611c0e9190613c97565b611c189083613c7f565b915080611c2481613ced565b915050611be9565b5092915050565b5060045490565b6000546001600160a01b03163314611c645760405162461bcd60e51b815260040161083290613bbd565b601680546001600160a01b0319166001600160a01b0392909216919091179055565b6000546001600160a01b03163314611cb05760405162461bcd60e51b815260040161083290613bbd565b600555565b60026001541415611cd85760405162461bcd60e51b815260040161083290613c17565b6002600155811580611cea5750816001145b80611cf55750816002145b611d115760405162461bcd60e51b815260040161083290613bf2565b336000908152600c6020908152604080832085845290915290205415611d795760405162461bcd60e51b815260206004820152601a60248201527f594f5520414c524541445920484156452041204c495354494e470000000000006044820152606401610832565b600354604051627eeac760e11b81523360048201526024810184905282916001600160a01b03169062fdd58e9060440160206040518083038186803b158015611dc157600080fd5b505afa158015611dd5573d6000803e3d6000fd5b505050506040513d601f19601f82011682018060405250810190611df99190613afb565b1015611e385760405162461bcd60e51b815260206004820152600e60248201526d1393d508195b9bdd59da0813919560921b6044820152606401610832565b60035460405163e985e9c560e01b81523360048201523060248201526001600160a01b039091169063e985e9c59060440160206040518083038186803b158015611e8157600080fd5b505afa158015611e95573d6000803e3d6000fd5b505050506040513d601f19601f82011682018060405250810190611eb99190613a9f565b611f055760405162461bcd60e51b815260206004820152601c60248201527f594f55204e45454420544f20415050524f5645204f50455241544f52000000006044820152606401610832565b611f0d6136fe565b600354604051637921219560e11b81526001600160a01b039091169063f242432a90611f43903390309087908790600401613b5f565b600060405180830381600087803b158015611f5d57600080fd5b505af1158015611f71573d6000803e3d6000fd5b5050505081600014156121e4576000828152600b6020908152604080832083805290915290206002015461207a576000828152600b6020908152604080832083805280835281842060016002918201819055835160a0810185528681528086018281528186018881523360608401818152608085018c8152868c52978a52888b2094518555925184860155905194830194909455516003820180546001600160a01b0319166001600160a01b039092169190911790559251600490930192909255600d829055808552600c84528285208786529093529281902083905551600080516020613d788339815191529261206d929186908690613b97565b60405180910390a161146f565b600d54612088906001613c7f565b6000838152600b60209081526040808320600d805485529083529281902060020193909355825160a081019093529054808352908201906120ca906001613c7f565b815260200160008152602001336001600160a01b0316815260200182815250600b60008481526020019081526020016000206000600d54600161210d9190613c7f565b81526020808201929092526040908101600020835181559183015160018084019190915590830151600283015560608301516003830180546001600160a01b0319166001600160a01b03909216919091179055608090920151600490910155600d5461217891613c7f565b336000908152600c60209081526040808320868452909152902055600d5460001914156121a9576001600d556121bf565b600d80549060006121b983613ced565b91905055505b600080516020613d7883398151915233600d54848460405161206d9493929190613b97565b8160011415612446576000828152600b602090815260408083208380529091529020600201546122dc576000828152600b6020908152604080832083805280835281842060016002918201819055835160a0810185528681528086018281528186018881523360608401818152608085018c8152868c52978a52888b2094518555925184860155905194830194909455516003820180546001600160a01b0319166001600160a01b039092169190911790559251600490930192909255600e829055808552600c84528285208786529093529281902083905551600080516020613d788339815191529261206d929186908690613b97565b600e546122ea906001613c7f565b6000838152600b60209081526040808320600e805485529083529281902060020193909355825160a0810190935290548083529082019061232c906001613c7f565b815260200160008152602001336001600160a01b0316815260200182815250600b60008481526020019081526020016000206000600e54600161236f9190613c7f565b81526020808201929092526040908101600020835181559183015160018084019190915590830151600283015560608301516003830180546001600160a01b0319166001600160a01b03909216919091179055608090920151600490910155600e546123da91613c7f565b336000908152600c60209081526040808320868452909152902055600e54600019141561240b576001600e55612421565b600e805490600061241b83613ced565b91905055505b600080516020613d7883398151915233600e54848460405161206d9493929190613b97565b6000828152600b60209081526040808320838052909152902060020154612535576000828152600b6020908152604080832083805280835281842060016002918201819055835160a0810185528681528086018281528186018881523360608401818152608085018c8152868c52978a52888b2094518555925184860155905194830194909455516003820180546001600160a01b0319166001600160a01b039092169190911790559251600490930192909255600f829055808552600c84528285208786529093529281902083905551600080516020613d788339815191529261206d929186908690613b97565b600f54612543906001613c7f565b6000838152600b60209081526040808320600f805485529083529281902060020193909355825160a08101909352905480835290820190612585906001613c7f565b815260200160008152602001336001600160a01b0316815260200182815250600b60008481526020019081526020016000206000600f5460016125c89190613c7f565b81526020808201929092526040908101600020835181559183015160018084019190915590830151600283015560608301516003830180546001600160a01b0319166001600160a01b03909216919091179055608090920151600490910155600f5461263391613c7f565b336000908152600c60209081526040808320868452909152902055600f546000191415612664576001600f5561267a565b600f805490600061267483613ced565b91905055505b600080516020613d7883398151915233600f54848460405161269f9493929190613b97565b60405180910390a1505060018055565b6000546001600160a01b031633146126d95760405162461bcd60e51b815260040161083290613bbd565b601080546001600160a01b0319166001600160a01b0392909216919091179055565b6000546001600160a01b031633146127255760405162461bcd60e51b815260040161083290613bbd565b600280546001600160a01b0319166001600160a01b0392909216919091179055565b6002600154141561276a5760405162461bcd60e51b815260040161083290613c17565b60026001556127776136fe565b60008261278757506004546127b6565b82600114156127a55760045461279e906005613cb7565b90506127b6565b6004546127b390600a613cb7565b90505b336000908152600c602090815260408083208684529091529020541561282a5760405162461bcd60e51b815260206004820152602360248201527f594f5520484156452041204c495354494e472c2043414e43454c2049542046496044820152621494d560ea1b6064820152608401610832565b8215806128375750826001145b806128425750826002145b61285e5760405162461bcd60e51b815260040161083290613bf2565b6128688183613cb7565b84146128a95760405162461bcd60e51b815260206004820152601060248201526f09a9e9c8ab2409aaaa6a8409a82a886960831b6044820152606401610832565b6002546040516370a0823160e01b815233600482015285916001600160a01b0316906370a082319060240160206040518083038186803b1580156128ec57600080fd5b505afa158015612900573d6000803e3d6000fd5b505050506040513d601f19601f820116820180604052508101906129249190613afb565b101561296a5760405162461bcd60e51b8152602060048201526015602482015274494e53554646494349454e542042414c4c414e434560581b6044820152606401610832565b600254604051636eb1769f60e11b815233600482015230602482015285916001600160a01b03169063dd62ed3e9060440160206040518083038186803b1580156129b357600080fd5b505afa1580156129c7573d6000803e3d6000fd5b505050506040513d601f19601f820116820180604052508101906129eb9190613afb565b1015612a315760405162461bcd60e51b8152602060048201526015602482015274504c4541534520434845434b20414c4f57414e434560581b6044820152606401610832565b600354604051627eeac760e11b81523060048201526024810185905283916001600160a01b03169062fdd58e9060440160206040518083038186803b158015612a7957600080fd5b505afa158015612a8d573d6000803e3d6000fd5b505050506040513d601f19601f82011682018060405250810190612ab19190613afb565b1015612aee5760405162461bcd60e51b815260206004820152600c60248201526b4f5554204f462053544f434b60a01b6044820152606401610832565b81612af76137fe565b84612b5e57506000848152600b60209081526040808320838052825291829020825160a0810184528154815260018201549281019290925260028101549282019290925260038201546001600160a01b031660608201526004909101546080820152612c27565b8460011415612bc957506000848152600b60209081526040808320838052825291829020825160a0810184528154815260018201549281019290925260028101549282019290925260038201546001600160a01b031660608201526004909101546080820152612c27565b506000848152600b60209081526040808320838052825291829020825160a0810184528154815260018201549281019290925260028101549282019290925260038201546001600160a01b0316606082015260049091015460808201525b6000858152600b6020908152604080832084820151845290915290205b82156133e6578060040154831115612f5e576064600754826004015486612c6b9190613cb7565b612c759190613cb7565b612c7f9190613c97565b60086000828254612c909190613c7f565b90915550506007546004820154600091606491612cad9088613cb7565b612cb79190613cb7565b612cc19190613c97565b6004830154612cd09087613cb7565b612cda9190613cd6565b9050816004015484612cec9190613cd6565b600483018054600090915590945087612d3257600d5483600101541415612d2d576000888152600b60209081526040808320600d8054855292529091205490555b612d9b565b8760011415612d6d57600e5483600101541415612d2d576000888152600b60209081526040808320600e805485529252909120549055612d9b565b600f5483600101541415612d9b576000888152600b60209081526040808320600f8054855292529091205490555b6000888152600b602090815260408083206001870180548552908352818420805460029182015481875284872090920182905591548552828520548186528386205560038801546001600160a01b03168552600a909352908320805491938692612e06908490613c7f565b909155505060008a8152600b602090815260408083206002890154845290915290208a612e6e5760038601546001870154604051908152339186916001600160a01b0390911690600080516020613d98833981519152906020015b60405180910390a4612eeb565b8a60011415612eaf5760038601546001870154604051908152339186916001600160a01b0390911690600080516020613d5883398151915290602001612e61565b60038601546001870154604051908152339186916001600160a01b0390911690600080516020613db88339815191529060200160405180910390a45b6003808701546001600160a01b03166000908152600c602090815260408083208f84528252808320839055600b825280832060019a8b0154845290915281208181559788018190556002880181905590870180546001600160a01b031916905560049096019590955550612c4492505050565b80600401548310156130fe57600754606490612f7a8587613cb7565b612f849190613cb7565b612f8e9190613c97565b60086000828254612f9f9190613c7f565b9091555050600754600090606490612fb78688613cb7565b612fc19190613cb7565b612fcb9190613c97565b612fd58587613cb7565b612fdf9190613cd6565b9050600084905084836004016000828254612ffa9190613cd6565b909155505060038301546001600160a01b03166000908152600a6020526040812080549196508391879061302f908490613c7f565b90915550508761307a5760038301546001840154604051908152339183916001600160a01b0390911690600080516020613d98833981519152906020015b60405180910390a46130f7565b87600114156130bb5760038301546001840154604051908152339183916001600160a01b0390911690600080516020613d588339815191529060200161306d565b60038301546001840154604051908152339183916001600160a01b0390911690600080516020613db88339815191529060200160405180910390a45b5050612c44565b80600401548314156133e157606460075482600401548661311f9190613cb7565b6131299190613cb7565b6131339190613c97565b600860008282546131449190613c7f565b909155505060075460048201546000916064916131619088613cb7565b61316b9190613cb7565b6131759190613c97565b60048301546131849087613cb7565b61318e9190613cd6565b60048301805460009182905560038501546001600160a01b03168252600a60205260408220805492975092935091839187906131cb908490613c7f565b90915550508761320857600d5483600101541415613203576000888152600b60209081526040808320600d8054855292529091205490555b613271565b876001141561324357600e5483600101541415613203576000888152600b60209081526040808320600e805485529252909120549055613271565b600f5483600101541415613271576000888152600b60209081526040808320600f8054855292529091205490555b6000888152600b602090815260408083206001870180548552925280832080546002918201548186528386209092018290559254845281842054818552919093205590896132fa5760038501546001860154604051908152339185916001600160a01b0390911690600080516020613d98833981519152906020015b60405180910390a4613377565b896001141561333b5760038501546001860154604051908152339185916001600160a01b0390911690600080516020613d58833981519152906020016132ed565b60038501546001860154604051908152339185916001600160a01b0390911690600080516020613db88339815191529060200160405180910390a45b5050506003808301546001600160a01b03166000908152600c602090815260408083208b84528252808320839055600b82528083206001808801548552925282208281559081018290556002810182905591820180546001600160a01b0319169055600490910155505b612c44565b821561340257634e487b7160e01b600052600160045260246000fd5b6002546040516323b872dd60e01b8152336004820152306024820152604481018990526001600160a01b03909116906323b872dd90606401602060405180830381600087803b15801561345457600080fd5b505af1158015613468573d6000803e3d6000fd5b505050506040513d601f19601f8201168201806040525081019061348c9190613a9f565b50600354604051637921219560e11b81526001600160a01b039091169063f242432a906134c390309033908b908b90600401613b5f565b600060405180830381600087803b1580156134dd57600080fd5b505af11580156134f1573d6000803e3d6000fd5b505060018055505050505050505050565b6000546001600160a01b0316331461352c5760405162461bcd60e51b815260040161083290613bbd565b6001600160a01b0381166135915760405162461bcd60e51b815260206004820152602660248201527f4f776e61626c653a206e6577206f776e657220697320746865207a65726f206160448201526564647265737360d01b6064820152608401610832565b61359a816137ae565b50565b6135a56137fe565b6135ad6137fe565b8261361b57506000828152600b602090815260408083208380528252808320600290810154845292819020815160a08101835281548152600182015493810193909352928301549082015260038201546001600160a01b031660608201526004909101546080820152610802565b826001141561368d57506000828152600b602090815260408083208380528252808320600290810154845292819020815160a08101835281548152600182015493810193909352928301549082015260038201546001600160a01b031660608201526004909101546080820152610802565b82600214156108025750506000908152600b602090815260408083208380528252808320600290810154845292819020815160a08101835281548152600182015493810193909352928301549082015260038201546001600160a01b03166060820152600490910154608082015290565b6006544211156117225760006018603c806006544261371d9190613cd6565b6137279190613c97565b6137319190613c97565b61373b9190613c97565b9050801561359a5760045460005b828110156137a7576103e86005546004546137649190613cb7565b61376e9190613c97565b6137789083613c7f565b9150620151806006600082825461378f9190613c7f565b9091555081905061379f81613ced565b915050613749565b5060045550565b600080546001600160a01b038381166001600160a01b0319831681178455604051919092169283917f8be0079c531659141344cd1fd0a4f28419497f9722a3daafe3b4186f6b6457e09190a35050565b6040518060a0016040528060008152602001600081526020016000815260200160006001600160a01b03168152602001600081525090565b600082601f830112613846578081fd5b8135602067ffffffffffffffff82111561386257613862613d1e565b8160051b613871828201613c4e565b83815282810190868401838801850189101561388b578687fd5b8693505b858410156138ad57803583526001939093019291840191840161388f565b50979650505050505050565b600082601f8301126138c9578081fd5b813567ffffffffffffffff8111156138e3576138e3613d1e565b6138f6601f8201601f1916602001613c4e565b81815284602083860101111561390a578283fd5b816020850160208301379081016020019190915292915050565b600060208284031215613935578081fd5b813561394081613d34565b9392505050565b600080600080600060a0868803121561395e578081fd5b853561396981613d34565b9450602086013561397981613d34565b9350604086013567ffffffffffffffff80821115613995578283fd5b6139a189838a01613836565b945060608801359150808211156139b6578283fd5b6139c289838a01613836565b935060808801359150808211156139d7578283fd5b506139e4888289016138b9565b9150509295509295909350565b600080600080600060a08688031215613a08578081fd5b8535613a1381613d34565b94506020860135613a2381613d34565b93506040860135925060608601359150608086013567ffffffffffffffff811115613a4c578182fd5b6139e4888289016138b9565b60008060408385031215613a6a578182fd5b8235613a7581613d34565b946020939093013593505050565b600060208284031215613a94578081fd5b813561394081613d49565b600060208284031215613ab0578081fd5b815161394081613d49565b600060208284031215613acc578081fd5b81356001600160e01b031981168114613940578182fd5b600060208284031215613af4578081fd5b5035919050565b600060208284031215613b0c578081fd5b5051919050565b60008060408385031215613b25578182fd5b50508035926020909101359150565b600080600060608486031215613b48578081fd5b505081359360208301359350604090920135919050565b6001600160a01b0394851681529290931660208301526040820152606081019190915260a06080820181905260009082015260c00190565b6001600160a01b0394909416845260208401929092526040830152606082015260800190565b6020808252818101527f4f776e61626c653a2063616c6c6572206973206e6f7420746865206f776e6572604082015260600190565b6020808252600b908201526a1393d50810531313d5d15160aa1b604082015260600190565b6020808252601f908201527f5265656e7472616e637947756172643a207265656e7472616e742063616c6c00604082015260600190565b604051601f8201601f1916810167ffffffffffffffff81118282101715613c7757613c77613d1e565b604052919050565b60008219821115613c9257613c92613d08565b500190565b600082613cb257634e487b7160e01b81526012600452602481fd5b500490565b6000816000190483118215151615613cd157613cd1613d08565b500290565b600082821015613ce857613ce8613d08565b500390565b6000600019821415613d0157613d01613d08565b5060010190565b634e487b7160e01b600052601160045260246000fd5b634e487b7160e01b600052604160045260246000fd5b6001600160a01b038116811461359a57600080fd5b801515811461359a57600080fdfee80b2261a79ae65d54a43bd5277e01a1e7a1a0e9e4fa2d95f86c2846430ca3b46ab0c0d6f398b4ef2ef303a1d9e3270349ccda6566f59107a0f2c3af79ef07341b3307b2eea1867e77b93070e1f95dbd92b502931bc506037f0595c519c818ac9e2bf5665863ce8e33dd4591a887d20a1689d46ea1022b0d293906e238e59aeea2646970667358221220ccff8ca90323a08c206139c613a6f998e6bf64ecbe6c04242c24537464d7250164736f6c63430008040033",
  "linkReferences": {},
  "deployedLinkReferences": {}
}